:020000040800F2
:100000007806002059010008A90D0008850D000898
:1000100000000000000000000000000000000000E0
:100020000000000000000000000000009F0E00081B
:1000300000000000000000009D0E0008A10E000856
:100040006B010008000000006B0100086B01000854
:100050006B0100086B0100086B0100086B010008D0
:1000600000000000530300086B0100086B0100084A
:100070006B0100086B0100086B0100080000000024
:100080006B01000800000000000000006B01000888
:100090006B0100086B0100086B0100086B01000890
:1000A0006B0100086B0100086B0100086B01000880
:1000B0006B01000800F002F800F03EF80CA030C818
:1000C000083824182D18A246671EAB4654465D46D4
:1000D000AC4201D100F030F87E460F3E0FCCB64660
:1000E0000126334200D0FB1AA246AB4633431847E1
:1000F000C0150000E0150000103A02D378C878C19E
:10010000FAD8520701D330C830C101D504680C6059
:10011000704700000023002400250026103A01D378
:1001200078C1FBD8520700D330C100D50B607047AF
:100130001FB51FBD10B510BD00F0DAF81146FFF76E
:10014000F7FF01F0CBF800F0F2F803B4FFF7F2FF8D
:1001500003BC00F0F7F80000074880470748004755
:10016000FEE7FEE7FEE7FEE7FEE7FEE70448054997
:10017000054A064B70470000310F0008B500000823
:100180006802002078060020780200207802002013
:10019000002203098B422CD3030A8B4211D3002384
:1001A0009C464EE003460B433CD4002243088B425E
:1001B00031D303098B421CD3030A8B4201D39446EB
:1001C0003FE0C3098B4201D3CB01C01A52418309DE
:1001D0008B4201D38B01C01A524143098B4201D398
:1001E0004B01C01A524103098B4201D30B01C01AC3
:1001F0005241C3088B4201D3CB00C01A524183083D
:100200008B4201D38B00C01A524143088B4201D369
:100210004B00C01A5241411A00D2014652411046C9
:1002200070475DE0CA0F00D04942031000D340423E
:10023000534000229C4603098B422DD3030A8B4274
:1002400012D3FC22890112BA030A8B420CD3890112
:1002500092118B4208D3890192118B4204D38901F8
:100260003AD0921100E08909C3098B4201D3CB0136
:10027000C01A524183098B4201D38B01C01A5241EB
:1002800043098B4201D34B01C01A524103098B42EF
:1002900001D30B01C01A5241C3088B4201D3CB00DA
:1002A000C01A524183088B4201D38B00C01A5241BD
:1002B000D9D243088B4201D34B00C01A5241411A94
:1002C00000D20146634652415B10104601D34042C2
:1002D000002B00D54942704763465B1000D3404273
:1002E00001B50020C046C04602BD70477047704748
:1002F000754600F023F8AE46050069465346C0082F
:10030000C000854618B020B5FFF730FF60BC00275D
:100310004908B6460026C0C5C0C5C0C5C0C5C0C5D1
:10032000C0C5C0C5C0C5403D49008D4670470446A4
:10033000C046C0462046FFF708FF0000004870474F
:100340000402002001491820ABBEFEE7260002008F
:100350007047704700BFFEE770B5034600220024D7
:100360000020D5E0012696400D6835402C46002C33
:1003700077D04D68022D02D04D68122D15D1D508C9
:10038000AE001D462035A8595507EE0E0F25B54085
:100390000646AE4330465607F60E0D69B540284373
:1003A000D508AD001E46203670511868560003254A
:1003B000B5400646AE4330460D79AD07AD0F560049
:1003C000B540284318604D68012D08D04D68022DB6
:1003D00005D04D68112D02D04D68122D18D19868A6
:1003E00056000325B5400646AE4330465600CD685C
:1003F000B540284398605868012595400646AE43AD
:10040000304610264D6835402D09954028435860E8
:10041000D86856000325B5400646AE433046560020
:100420008D68B5402843D860012636074D683540B1
:10043000B5426CD1394DAD6901263543374EB561B2
:10044000374D9608B600A85995072E0F0F25B540D1
:100450000646AE4330460925ED06AB4202D10025E3
:1004600010E054E02F4DAB4201D101250AE02E4DA2
:10047000AB4201D1022505E02C4DAB4201D1032551
:1004800000E005259607360FB5402843244D960811
:10049000B600A851264D28680546A54328460126E2
:1004A00036044D683540B54202D1054625432846FD
:1004B0001F4D286068680546A54328460126760436
:1004C0004D683540B54202D1054625432846184DB2
:1004D0006860A8680546A5432846012636054D688C
:1004E0003540B54202D1054625432846104DA86047
:1004F000E8680546A5432846012676054D6835403F
:10050000B54202D1054625432846094DE860521CF4
:100510000D68D540002D00D024E770BD00100240CA
:10052000080001400004004800080048000C004892
:1005300000040140002A01D0816101E00B048361C5
:100540007047000001480068704700002C00002040
:1005500010B50648006810210843044908600320CC
:1005600000F006F800F017F8002010BD002002404F
:1005700070B5044600F042F906467D21C900FFF738
:1005800007FE054600F0E2FB00222146501E00F067
:1005900003F8002070BD704770B504460D4616463E
:1005A0002946204600F002FC70BD000070B50446EC
:1005B0000D4600268E480068C007C00FA84271D2C1
:1005C0008B48006840084000284389490860084675
:1005D0000068C007C00FA84201D0012070BD0221F1
:1005E00020680840022807D182484068F0218843EB
:1005F000A16808437F4948602078C007C00F0028E1
:100600003CD06068012808D17A480068012149047B
:100610000840002815D10120E0E76068022808D1D1
:1006200074480068012149060840002809D10120CA
:10063000D4E77048006802210840002801D1012059
:10064000CCE76C48406880088000616808436949CD
:100650004860FFF777FF0646606801280FD107E082
:10066000FFF770FF801B6449884201D90320B5E77A
:10067000604840680C2108400428F1D1A4E060687B
:10068000022810D107E0FFF75DFF801B5A4988421E
:1006900001D90320A2E7574840680C2108400828E8
:1006A000F1D191E00FE007E0FFF74CFF801B5249CA
:1006B000884201D9032091E74E4840680C21084048
:1006C0000028F1D180E0022120680840022807D1EB
:1006D00048484068F0218843A1680843454948607C
:1006E0002078C007C00F00285FD06068012808D1BB
:1006F00040480068012149040840002815D1012024
:100700006CE76068022808D13A4800680121490670
:100710000840002809D1012060E73648006802211E
:100720000840002801D1012058E73248406880087D
:100730008000616808432F494860FFF703FF0646C1
:10074000606801280FD107E0FFF7FCFE801B2A49F3
:10075000884201D9032041E7264840680C2108401F
:100760000428F1D121E0606802280FD107E0FFF7EB
:10077000E9FE801B2049884201D903202EE71D484D
:1007800040680C2108400828F1D10EE007E0FFF78F
:10079000D9FE801B1849884201D903201EE715485D
:1007A00040680C2108400028F1D111480068400839
:1007B000400028430E49086008460068C007C00F83
:1007C000A84201D0012009E704212068084004283C
:1007D00008D108484068072109028843E1680843B6
:1007E000044948600320FFF7C3FE0020F6E600003E
:1007F00000200240001002408813000010B500F0F5
:1008000013F806494968F02211400909044A515C6D
:10081000C840044908600846006810BD0010024046
:100820006416000818000020F8B5002400270025F1
:100830000026002000901A4844680C202040002820
:1008400027D0042802D0082822D102E015480090C1
:1008500022E00F2080042040800C13490D5C1048DA
:10086000C06A0007000F11490F5C012000042040FE
:1008700001210904884206D139460A48FFF788FC5D
:100880006843064602E00A482E464643009603E0C7
:1008900000BF0448009000BF00BF0098F8BD0000F2
:1008A0000010024000127A00741600088416000836
:1008B00000093D0070B5044600252078C007C00F30
:1008C000002860D0FE4840680C21084004280BD066
:1008D000FB4840680840082812D1F94840680121C7
:1008E0000904084088420BD1F548006801214904F9
:1008F0000840002847D06068012844D0012070BD1E
:100900000020EF498870FFF71DFE054607E0FFF75E
:1009100019FE401BEB49884201D90320EFE7E84864
:1009200000680121490408400028F0D12079E449F9
:1009300088706068002813D0FFF704FE054607E0C2
:10094000FFF700FE401BDF49884201D90320D6E7AC
:10095000DB4800680121490408400028F0D012E07B
:10096000FFF7F0FD054607E0FFF7ECFD401BD5491A
:10097000884201D90320C2E7D14800680121490417
:1009800008400028F0D1022120680840022861D1E7
:10099000CB4840680C21084000280BD0C84840686C
:1009A000084008281BD1C6484068012109040840B6
:1009B000002814D1C248006802210840002804D051
:1009C000E068012801D0012099E7BD480068F821BE
:1009D00088432169C9000843B94908603AE0E068E2
:1009E000002820D0B648006801210843B4490860B7
:1009F000FFF7A8FD054606E0FFF7A4FD401B6428AD
:100A000001D903207BE7AE48006802210840002896
:100A1000F2D0AB480068F82188432169C900084337
:100A2000A749086016E0A648006840084000A449AD
:100A30000860FFF787FD054606E0FFF783FD401BD2
:100A4000642801D903205AE79D4800680221084024
:100A50000028F2D1082120680840082831D1206AF6
:100A6000002817D09648406A0121084394494862FB
:100A7000FFF768FD054606E0FFF764FD401B6428AC
:100A800001D903203BE78E48406A02210840002834
:100A9000F2D016E08A48406A40084000884948621F
:100AA000FFF750FD054606E0FFF74CFD401B6428AC
:100AB00001D9032023E78248406A02210840002828
:100AC000F2D1042120680840042865D17C48C0691F
:100AD000890608437A49C8617B480068891508433C
:100AE00079490860FFF72EFD054606E0FFF72AFD6D
:100AF000401B642801D9032001E773480068FF21E7
:100B0000013108400028F1D06D48006A0521884372
:100B10006B490862FFF716FD054607E0FFF712FD77
:100B2000401B6849884201D90320E8E66448006A0E
:100B3000022108400028F1D16148006A052188435C
:100B4000A16808435E490862A068012812D1FFF736
:100B5000F9FC054607E0FFF7F5FC401B59498842C0
:100B600001D90320CBE65648006A0221084000283C
:100B7000F1D011E0FFF7E6FC054607E0FFF7E2FCE5
:100B8000401B5049884201D90320B8E64C48006A0E
:100B9000022108400028F1D11021206808401028C7
:100BA00059D16069012826D14548406B042108438A
:100BB000434948630846406B012108434049486364
:100BC000FFF7C0FC054606E0FFF7BCFC401B6428AD
:100BD00001D9032093E63A48406B022108400028DF
:100BE000F2D03748406BF8218843A169C900084317
:100BF000334948632FE06069401D00280FD1304819
:100C0000406B042188432E4948630846406BF82115
:100C10008843A169C9000843294948631BE0284863
:100C2000406B04210843264948630846406B40084E
:100C300040004863FFF786FC054606E0FFF782FCAC
:100C4000401B642801D9032059E61D48406B02214E
:100C500008400028F2D1606A002873D01848406824
:100C60000C21084008286BD0606A02284ED1144835
:100C7000006801210906884311490860FFF762FCFA
:100C8000054606E0FFF75EFC401B642801D90320FF
:100C900035E60B4800680121490608400028F1D1DB
:100CA00000BF0748C06A00090001E16A084304491F
:100CB000C862A16A206B0843014949683D2205E0EA
:100CC000001002408813000000700040120491439D
:100CD00008431D49486000BF084600680121090615
:100CE000084319490860FFF72DFC054606E0FFF7A9
:100CF00029FC401B642801D9032000E61248006843
:100D00000121490608400028F1D01BE00E48006888
:100D10000121090688430C490860FFF713FC0546CA
:100D200006E0FFF70FFC401B642801D90320E6E52D
:100D3000054800680121490608400028F1D101E07A
:100D40000120DCE50020DAE50010024070B5044621
:100D50002546681E0949884201D901200CE0681E19
:100D6000074948610321081F00F020F800200449CA
:100D7000886107200861002070BD0000FFFFFF00B0
:100D800000E000E000BFFEE710B5012220210920AD
:100D9000C006FFF7CFFB10BD10B5002220210920AF
:100DA000C006FFF7C7FB10BD7047000010B5002854
:100DB00019DA1A4A03071B0F083B9B089B00D258FD
:100DC0008307DC0EFF23A3409A438B071B0E840787
:100DD000E40EA3401A43114B0407240F083CA40857
:100DE000A4001A5118E00E4A03231B02D2188308EC
:100DF0009B00D2588307DC0EFF23A3409A438B0746
:100E00001B0E8407E40EA3401A43054B032424025F
:100E10001B198408A4001A5110BD00001CED00E04D
:100E200000E100E010B5002819DA1A4A03071B0F89
:100E3000083B9B089B00D2588307DC0EFF23A3408E
:100E40009A438B071B0E8407E40EA3401A43114BF1
:100E50000407240F083CA408A4001A5118E00E4A05
:100E600003231B02D21883089B00D2588307DC0E91
:100E7000FF23A3409A438B071B0E8407E40EA34075
:100E80001A43054B032424021B198408A4001A5199
:100E900010BD00001CED00E000E100E0704770476D
:100EA00010B50E480068401C0C49086000F088F935
:100EB000002801D000F08EF909480068401E08495A
:100EC0000860002808D107480068401C05490860F0
:100ED0007D20C0000249086010BD000068000020AD
:100EE000700000206C00002000B591B00020009040
:100EF0000220099000210A910B910521C9040C914F
:100F00006846FFF7D7FC002801D0FFF723FA072037
:100F10000D9002200E9000200F90109001210DA83E
:100F2000FFF744FB002801D0FFF714FA11B000BD11
:100F300019480068012108431749086008464068BD
:100F4000164908401449486008460068144908409A
:100F500011490860084600680121890488430E4948
:100F60000860084640683F21090488430A494860F0
:100F70000846C06A00090001C8620846006BFF21EC
:100F800014318843044908630846406B4008400018
:100F90004863002088607047001002400CB8FF08CA
:100FA000FFFFF6FE70B5044600F014F9E068002873
:100FB0000DD00D48056808E0A54205D10B48006832
:100FC000E06000F027FB70BDAD68002DF4D107484C
:100FD0000068E06004480068A0600348046000F016
:100FE00019FB00BFEFE70000300000204C0000209C
:100FF000F8B504460E461746A07BC007C00F002870
:101000001AD0A068002817D00C4804600220A073F2
:101010003A46314620460C30A36898470546022DD3
:1010200003D0032D01D0832E04D12146204600F0A9
:10103000E5F801E00120A073F8BD00004C0000209D
:1010400010B57D21C9000C480068FFF7A1F80446DF
:10105000601E0A49884200D90CE0601E08494861B8
:101060000321081FFFF7DEFE0020054988610720E5
:10107000086100BF10BD000018000020FFFFFF0046
:1010800000E000E0014800687047000068000020B0
:1010900010B53048007800285ADD2F4800780C2120
:1010A00048432E49085C2E4908702B4800780C21D3
:1010B00048432A49401840682A4908602648007871
:1010C0000C21484325494018806827490860224977
:1010D0000978481CC117C90E091849114901411A5C
:1010E0001D4A11701B480078401E1A4908701E489E
:1010F000006800281CD11D4800681D49086012E0E6
:101100001C480078002801D000F036F81548026825
:101110001348017816480068FFF76AFF1448006812
:10112000006813490860124800680028E8D10FE001
:101130000B480078812803D101200B490968887386
:10114000084802680648017807480068FFF750FF22
:1011500010BD00005100002052000020840000203B
:1011600054000020580000205C00002048000020AF
:10117000600000205300002010B500200A490870CC
:101180000A4804680CE0E07B002808D00120A07326
:101190000020E073002282212046FFF729FF246807
:1011A000002CF0D110BD00005300002048000020AA
:1011B0000146C868002801D1012070470020FCE7E3
:1011C00003480068002801D0012070470020FCE798
:1011D0003000002010B5024800F0BCF810BD00003F
:1011E0003800002070B504460D462946204600F020
:1011F00009FA2046FFF7D6FE70BD0000F8B5044698
:101200000E46244807682448056800E02D68A5427A
:1012100001D0002DFAD1002D00D1F8BD204600F0FC
:1012200091F800281BD00020A0731B48056807E038
:10123000AC4204D0224687212846FFF7D9FE2D680C
:10124000002DF5D1A068002809D0B44207D011487C
:1012500004600022832120460C30A36898470E4882
:101260000068844205D10C48006800680A4908609B
:101270000CE00948056806E02868A04202D1206811
:10128000286002E02D68002DF6D100BF01480760FC
:1012900000BFC2E74C0000204800002000B585B028
:1012A0000D488069012108430B498861084640695F
:1012B0000121490408430849486120200090012089
:1012C000019002900320039069460920C006FFF7B1
:1012D00043F805B000BD000000100240FFF738F9E8
:1012E000FFF702FEFFF7ACFE00F014F800210748FC
:1012F00000F09EF80021064800F09AF804E000BFD4
:1013000000F082F80028FBDCF9E70000380000203C
:10131000080000208A20064908700020054908704E
:1013200005490870054908600549086070470000D4
:1013300050000020520000205100002048000020F2
:101340004C0000200146887B002801D00120704716
:101350000020FCE7002809D0817B012902D0817B95
:10136000022903D10121C173014A117070470000A5
:101370005300002030B5034617480078202801D1DB
:10138000012030BD154C2478134D2D786419E0B23E
:10139000C417E40E241864116401041B104D2C7052
:1013A000284600780C2460430E4C215428460078CF
:1013B0000C2460430B4C00194260284600780C2432
:1013C0006043084C0019836003480078401C024CBD
:1013D00020700020D5E700005100002052000020BE
:1013E0006400002084000020F8B504460D4616462F
:1013F00004480768324629462046FFF7F9FD0148B0
:101400000760F8BD4C00002010B5074800780028A0
:1014100001D0FFF7B1FEFFF73BFE04480078024918
:101420000978401810BD0000530000205100002032
:1014300070B504460E460D48056800E02D68A542CB
:1014400001D0002DFAD1A54200D170BD0748006837
:101450002060064804600120A0730020A08132466D
:1014600081212046FFF7C0FF00BFEEE748000020C3
:10147000F7B582B005460E46012001902888002865
:1014800002D0592861D109E00020334908605BE0AF
:1014900000BF002001905920288000BF019800283B
:1014A00002D1012005B0F0BD00BF872E23D10498E2
:1014B00004E0294909688968274A116026490968B2
:1014C000002904D024490968C9688142F1D0224921
:1014D000096800290ED020490C6808E0A168C96895
:1014E000814203D1A1688968A16000E0A468A16875
:1014F0000029F3D128E0822E00D025E000BF00278C
:10150000154804681DE0204600F06EF8002816D04B
:1015100022468821E068FFF72DFF00280DD1E0600A
:10152000002F02D0A068B86002E00B49A0680860F4
:101530000020A06000F06EF8E1E7FFF74BFE2746C1
:10154000A468002CDFD100BFA2E700BF00200190FB
:1015500028800320A6E7000030000020F8B50446EC
:101560000E46174601252088002804D06E280FD08B
:10157000732830D122E0FFF791FE2BE0FF21F531F7
:101580001848FFF72FFE00BF00256E20208000BF07
:10159000002D04D01348FFF70BFE002801D10120D5
:1015A000F8BD00BFFFF7F8FBFF21F5310D48FFF74D
:1015B00019FE00BF00257320208000BF002D04D03D
:1015C0000848FFF7F5FD002801D10120E8E700BF3A
:1015D000FFF7DAFBD2E700BF0025002020800320C0
:1015E000DEE700007400002070B50446FFF74AFDF6
:1015F0002168401A451C6068A84201D2012070BDD4
:101600000020FCE770B504460D466560FFF73AFD23
:10161000206070BD70B511490968002902D1104AD7
:10162000116019E0FFF72EFD0C490C686268216813
:1016300089180D1AA4680AE0626821688918091AD5
:10164000A94203D26268216889180D1AA468002C87
:10165000F2D14119024A116070BD00003000002033
:101660003400002000000000010203040102030412
:101670000607080902030405060708090A0B0C0DF2
:101680000E0F10100102030405060708090A0B0CCF
:101690000D0E0F106F7320746573742070726F637A
:1016A000657373004576656E742074696D657200AC
:1016B000D01600080000002074000000F8000008A8
:1016C00044170008740000200406000014010008FC
:1016D0000000000000000000000000009416000858
:1016E0005D1500080000000000127A0000000000F4
:1016F00000000000010203040607080900000000C2
:10170000000000000000000000000000A416000817
:10171000711400080000000000000000000000003C
:1017200000000000000000000000000000000000B9
:1017300000000000000000000000000000000000A9
:04174000E8030000BA
:04000005080000B53A
:00000001FF
