:020000040800F2
:100000007807002045010008E1190008E3190008FD
:10001000E7190008EB190008EF19000800000000BC
:10002000000000000000000000000000F3190008BC
:10003000F519000800000000F7190008F919000878
:100040005F0100085F0100085F0100085F01000810
:100050005F0100085F0100085F0100085F01000800
:100060005F0100085F0100085F0100085F010008F0
:100070005F0100085F0100085F0100085F010008E0
:100080005F0100085F0100085F0100085F010008D0
:100090005F0100085F0100085F0100085F010008C0
:1000A0005F0100085F0100085F0100085F010008B0
:1000B0005F0100085F0100085F0100085F010008A0
:1000C0005F0100085F0100085F0100085F01000890
:1000D0005F010008051A0008251A00085F010008E2
:1000E0005F0100085F0100085F0100085F01000870
:1000F0005F0100085F0100085F0100085F01000860
:100100005F0100085F0100085F0100085F0100084F
:100110005F0100085F0100085F0100085F0100083F
:100120005F0100085F0100085F0100085F0100082F
:10013000DFF80CD004F0BEFD00480047831900082A
:10014000780700200648804706480047FEE7FEE79C
:10015000FEE7FEE7FEE7FEE7FEE7FEE7FEE7FEE777
:1001600047020008310100080CB500200190009002
:100170006C48006840F480306A49086000BF6948F4
:10018000006800F4003000900198401C0190009835
:1001900018B90198B0F5A06FF1D16248006800F479
:1001A000003010B10120009001E000200090009884
:1001B000012843D15C48006840F010005A490860AB
:1001C0000846006820F0030008600846006840F018
:1001D0000200086053484068524948600846406839
:1001E00048600846406840F48060486008464068BF
:1001F00020F47C1048600846406840F4E8104860ED
:100200000846006840F08070086000BF45480068FC
:1002100000F000700028F9D04248406820F0030048
:10022000404948600846406840F00200486000BF0E
:100230003C48406800F00C000828F9D10CBD10B50E
:10024000FFF792FF10BD10B53648006840F001007E
:1002500034490860084640683449084031494860DC
:1002600008460068324908402E4908600846006880
:1002700020F4802008600846406820F4FE004860B2
:100280004FF41F008860FFF7DAFF4FF00060294944
:10029000086010BD10B5002100200022214B5B68D2
:1002A00003F00C0121B1042906D0082928D107E068
:1002B000214B224C236027E01F4B204C236023E07E
:1002C000184B5B6803F47010164B5B6803F48032C4
:1002D000022303EB904022B9194B4343174C236090
:1002E0000DE0104B5B6803F4003323B1144B434320
:1002F000124C236003E0104B4343104C236003E097
:100300000D4B0E4C236000BF00BF064B5B68C3F370
:1003100003130C4CE15C094B1B68CB40074C23607A
:1003200010BD000000100240002002400000FFF855
:10033000FFFFF6FE08ED00E000127A00000000204A
:1003400000093D000400002031490143314A116099
:10035000704770B5002100230F22C47804B32D4CE0
:10036000246804F4E064C4F5E064210AC1F10403E4
:10037000CA40447804FA03F1847814402143090107
:10038000254C0678A155047804F01F050124AC40E3
:1003900005786D11AD0005F1E025C5F8004109E0D3
:1003A000047804F01F050124AC401C4D067876113A
:1003B00045F8264070BD1A4A0A400243154B1B1FE0
:1003C0001A60704739B1134A121D12680243114B6B
:1003D0001B1D1A6006E00F4A121D126882430D4B66
:1003E0001B1D1A607047042808D14FF0E0210969ED
:1003F00041F004014FF0E022116107E04FF0E021ED
:10040000096921F004014FF0E022116170470000FA
:100410000000FA050CED00E000E400E080E100E0FF
:1004200080FFFF1F01460020FE4A106800F03800E0
:10043000084310607047FB49096821F00801F94A38
:10044000116011460968014311607047F549096858
:1004500021F01001F34A116011460968014311604F
:100460007047F148EF494860F04848607047EE48EF
:10047000EC494860ED4848607047EA48006940F040
:100480008000E84908617047E648006940F0800054
:10049000E449086170470420E249C96801F001019C
:1004A00009B101200EE0DF49C96801F0040109B17A
:1004B000022007E0DB49C96801F0100109B10320FF
:1004C00000E00420704700B502460423FFF7E3FF75
:1004D000034603E0FFF7DFFF0346521E012B01D165
:1004E000002AF7D102B90523184600BD30B50446ED
:1004F00004254FF43020FFF7E6FF0546042D17D101
:10050000C848006940F00200C649086108464461D5
:10051000006940F0400008614FF43020FFF7D3FF3E
:100520000546C048006941F6FD710840BD490861B3
:10053000284630BD10B504244FF43020FFF7C3FF28
:100540000446042C16D1B748006940F00400B549B0
:1005500008610846006940F0400008614FF430200F
:10056000FFF7B1FF0446AF48006941F6FB71084050
:10057000AC490861204610BD00B502460423FFF7D0
:100580008AFF034603E0FFF786FF0346521E012B56
:1005900001D1002AF7D102B90523184600BD10B5D4
:1005A00004244FF43020FFF7E7FF0446042C16D153
:1005B0009C48006940F004009A49086108460069B7
:1005C00040F0400008614FF43020FFF7D5FF0446AB
:1005D0009448006941F6FB71084092490861204641
:1005E00010BD00208F49C96901F0020109B1012045
:1005F00000E00020704730B5A5250424FFF7F1FF87
:1006000000B100254FF43020FFF75DFF0446042CB5
:100610003AD18548834988608448886008460069E3
:1006200040F0200008610846006940F04000086181
:100630004FF43020FFF747FF0446042C1BD17948C4
:10064000006941F6DF710840764908610846006993
:1006500040F01000086176480580E002FFF733FFA4
:100660000446052C10D06F48006941F6EF71084030
:100670006C49086108E0052C06D06A48006941F61B
:10068000EF71084067490861204630BD78B50646DD
:100690000C46042500200090E802FFF714FF0546F1
:1006A000042D24D15F48006940F001005D490861D4
:1006B0003480E802FFF707FF0546042D10D1B01C77
:1006C0000090200C00990880E802FFF7FCFE054628
:1006D0005448006941F6FE7108405249086106E03D
:1006E0005048006941F6FE7108404E4908612846AD
:1006F00078BD70B504460D460426F002FFF7E3FE10
:100700000646042E11D14748006940F001004549D2
:1007100008612580F002FFF7D6FE064641480069D1
:1007200041F6FE7108403F490861304670BD70B522
:1007300005460E460424E002FFF7C5FE0446042CDD
:1007400017D13948374988603848886008460069B9
:1007500040F0100008612E80E002FFF7B4FE04466E
:10076000052C06D02F48006941F6EF7108402D494D
:100770000861204670BD2DE9F04304464FF6FF7630
:100780003746B046B1460425E443E6B2C4F3072732
:10079000C4F307484FEA1469E802FFF794FE0546E0
:1007A000042D49D120481F498860204888600846A8
:1007B000006940F010000861FF2E06D01C48083088
:1007C0000680E802FFF77FFE0546042D08D1FF2FC3
:1007D00006D017480A300780E802FFF774FE054686
:1007E000042D0AD1B8F1FF0F07D011480C30A0F842
:1007F0000080E802FFF767FE0546042D0AD1B9F133
:10080000FF0F07D00A480E30A0F80090E802FFF76B
:100810005AFE0546052D0FD00248006941F6EF71DA
:10082000084007E00020024023016745AB89EFCD77
:1008300000F8FF1F664908612846BDE8F08330B51F
:10084000054604244FF43020FFF73DFE0446042CF7
:1008500041D160485E4988605F4888600846006909
:1008600040F0200008610846006940F0400008613F
:100870004FF43020FFF727FE0446042C22D15448C1
:10088000006941F6DF710840514908610846006976
:1008900040F0100008611DB100205049088002E0BE
:1008A000A5204E4908804FF43020FFF70CFE044687
:1008B000052C10D04648006941F6EF7108404449C4
:1008C000086108E0052C06D04148006941F6DF7157
:1008D00008403F490861204630BDF0B505460E4648
:1008E000174604243B483A4988603B488860E00248
:1008F000FFF7E9FD0446042C19D13548006940F0A2
:1009000010003349086147F0F80030432843334969
:10091000891C0880E002FFF7D6FD0446052C06D0AE
:100920002B48006941F6EF710840294908612046CB
:10093000F0BD2748C069800870472548006A7047A5
:1009400000202349096801F0200109B1012000E0DD
:100950000020704729B11E4A126902431C4B1A61DC
:1009600004E01B4A12698243194B1A617047014621
:100970000020012908D1164AD26902F001020AB109
:10098000012008E0002006E0114AD2680A400AB1BE
:10099000012000E0002070470D49C8607047042026
:1009A0000B49C96801F0010109B101200EE00849B5
:1009B000C96801F0040109B1022007E00449C968CF
:1009C00001F0100109B1032000E00420704700008D
:1009D0000020024023016745AB89EFCD00F8FF1FDF
:1009E00010B50446CC48844208D10121042000F00F
:1009F0002DFB0021042000F029FB46E0C74884427B
:100A000008D10121082000F021FB0021082000F07E
:100A10001DFB3AE0C248844208D10121102000F0B9
:100A200015FB0021102000F011FB2EE0BD48844290
:100A300008D10121202000F009FB0021202000F036
:100A400005FB22E0B848844208D10121402000F093
:100A5000FDFA0021402000F0F9FA16E0B348844284
:100A600008D10121802000F0F1FA0021802000F05F
:100A7000EDFA0AE0AE48844207D10121801500F06A
:100A8000E5FA0021A01500F0E1FA10BD10B5012132
:100A9000084600F0DBFA0021012000F0D7FA10BD73
:100AA0002DE9F04102460025002600200023002405
:100AB000002791F803C00CF00F0591F803C00CF06B
:100AC000100CBCF1000F03D091F802C04CEA0505F0
:100AD00091F800C0BCF1000F31D0146800202BE069
:100AE0004FF0010C0CFA00F3B1F800C00CEA030659
:100AF0009E4220D183004FF00F0C0CFA03F7BC4349
:100B000005FA03FC4CEA040491F803C0BCF1280F79
:100B100006D14FF0010C0CFA00FCC2F814C00AE038
:100B200091F803C0BCF1480F05D14FF0010C0CFA4D
:100B300000FCC2F810C0401C0828D1D31460B1F8E2
:100B400000C0BCF1FF0F34DD546800202EE000F13E
:100B5000080C4FF0010808FA0CF3B1F800C00CEAD9
:100B600003069E4221D183004FF00F0C0CFA03F7CD
:100B7000BC4305FA03FC4CEA040491F803C0BCF141
:100B8000280F05D100F1080C08FA0CF8C2F81480FF
:100B900091F803C0BCF1480F07D100F1080C4FF0E9
:100BA000010808FA0CF8C2F81080401C0828CED3BF
:100BB0005460BDE8F0814FF6FF7101800221817021
:100BC0000421C17070470246002093680B400BB1AE
:100BD000012000E0002070470146886880B270471D
:100BE00002460020D3680B400BB1012000E000203A
:100BF00070470146C86880B2704701617047416123
:100C000070470AB1016100E041617047C1607047FF
:100C10004FF480320A438261816182618269826914
:100C2000704702460020434B18684FF68073184007
:100C300040EA021008433F4B186070473E49C861C4
:100C40007047F0B50A46002300240021002500F07B
:100C50000046B6F1004F02D1364EF16901E0354E43
:100C60007168C0F3034583B200F44016B6F5401F27
:100C700008D121F070612F4E766826F070662D4FF6
:100C80007E6012E000F48016B6F5801F06D10326C0
:100C900006FA05F4A14341F0706106E0460D360105
:100CA00003FA06F6B14341F0706122B1460D3601F8
:100CB00003FA06F6314300F00046B6F1004F02D1C8
:100CC0001C4EF16101E01B4E7160F0BD30B5002299
:100CD0008B071C0F0F2303FA04F2164B08338C10FA
:100CE00053F824309343134C08348D1044F82530C6
:100CF00023468C1053F824308C07240F00FA04F498
:100D000023430C4C08348D1044F8253030BD0A497B
:100D1000DC3108607047000000080140000C014011
:100D2000001001400014014000180140001C014067
:100D3000002001400000014000002042DF48006820
:100D400040F00100DD49086008464068DC49084081
:100D5000DA49486008460068DA490840D74908601F
:100D60000846006820F4802008600846406820F4A7
:100D7000FE0048604FF41F0088607047CF49096843
:100D800021F48031CD4A11601146096821F4802197
:100D90001160B0F5803F03D0B0F5802F0ED106E092
:100DA000C649096841F48031C44A116007E0C3496B
:100DB000096841F4A021C14A116000E000BF00BFF2
:100DC000704710B501460022002300204A11012A75
:100DD00002D1BA4C236806E0022A02D1B74C236A3A
:100DE00001E0B64C636A01F01F02012494401C40EC
:100DF0000CB1012000E0002010BD38B500200090AB
:100E00000024002500BF3120FFF7DBFF05460098D6
:100E1000401C00900098B0F5A06F01D0002DF2D0DA
:100E20003120FFF7CEFF08B1012400E00024204666
:100E300038BD01460020A14A106820F0F80040EAC1
:100E4000C10010607047A04908607047024600204A
:100E50009A4B586820F47C1042EA01031843974BE0
:100E60005860704798490866704701460020934AC9
:100E7000506820F003000843506070478F48406876
:100E800000F00C007047014600208C4A506820F0AA
:100E9000F00008435060704701460020874A5068C0
:100EA00020F4E06008435060704701460020834A08
:100EB000506820F4605040EAC1005060704729B18A
:100EC0007E4A527A02437D4B5A7204E07B4A527A40
:100ED00082437A4B5A7270477B49D8310860704719
:100EE00001460020754A506820F440400843506095
:100EF00070470021714A20321170704A82F8201028
:100F0000012802D004280AD104E001216B4A2032D2
:100F1000117005E00521694A2032117000E000BF20
:100F200000BF70476949086070476449096A014316
:100F3000624A11627047654944390860704730B5AC
:100F400000210022002400235C4D6D6805F00C0197
:100F500021B1042905D0082923D105E05C4D0560A5
:100F600022E05B4D05601FE0544D6D6805F4701282
:100F7000524D6D6805F48034022505EB92421CB990
:100F8000544D554305600BE04C4D6D6805F400353C
:100F90001DB1504D5543056002E04D4D5543056070
:100FA00002E04B4D056000BF00BF444D6D6805F089
:100FB000F0010909484D6B5C0568DD4045603F4D17
:100FC0006D6805F4E061090A434D6B5C4568DD40DE
:100FD00085603A4D6D6805F46051C90A3E4D6B5C01
:100FE0004568DD40C560354D6D6805F44041890BAD
:100FF0003A4D6B5CC568B5FBF3F5056130BD29B1B1
:101000002E4A526902432D4B5A6104E02B4A526921
:1010100082432A4B5A61704729B1284A9269024398
:10102000264B9A6104E0254A92698243234B9A61D8
:10103000704729B1214AD2690243204BDA6104E0AA
:101040001E4AD26982431D4BDA61704729B11B4A9F
:10105000D2680243194BDA6004E0184AD26882432E
:10106000164BDA60704729B1144A12690243134BD8
:101070001A6104E0114A12698243104B1A617047E9
:1010800012494039086070470F49C86470470B49DE
:10109000C87170470948406A40F08070074948624B
:1010A000704701460020054A92680A400AB10120B3
:1010B00000E000207047014988727047001002402C
:1010C0000000FFF8FFFFF6FE0000424280044242AB
:1010D00000127A0000093D001400002024000020C6
:1010E00010B50446BE48844208D101218014FFF7A0
:1010F000ADFF0021A014FFF7A9FF16E0B948844214
:1011000008D101210014FFF7AEFF00212014FFF7E2
:10111000AAFF0AE0B448844207D10121C013FFF7B7
:10112000A2FF0021E013FFF79EFF10BD10B50022C3
:10113000028802F441520B884C8823438C88234355
:10114000CC8823430C8923434C8923438C89234334
:10115000CC8923431A430280838B4FF2FF742340D0
:1011600083830B8A038210BD2DE9F04F85B00546BD
:101170000C464FF0000902274FF000084FF0010B1A
:101180000026B246A88B4FF240010840A8830220F7
:101190002884B5F81C90A068022801D100BF38E06F
:1011A000A08810B94FF0010B01E04FF0020B8D4801
:1011B000854200D100E000BF6846FFF7C0FEDDF8C1
:1011C00000A0E088B0F5007F0AD14FEA1A2000EBBA
:1011D00080004000A168B0FBF1F0401D86B20BE03A
:1011E0004FEA4B10BAFBF0F000EB80004000A16822
:1011F000B0FBF1F0401D86B20A20B6FBF0F606F017
:101200000108A6EB0800C0F34F074FF6FF7000EA95
:101210000828022F01DBFF2F02DD02274FF0000814
:10122000E08840EA080038432884A088A189084360
:10123000618808432188084340F4006040EA0909B6
:10124000A5F81C9005B0BDE8F08F00210180418019
:101250008180C180018141818181C1810721018219
:1012600070470021018041808180C180022181601E
:1012700000218181704721B1028842F04002028042
:1012800004E002884FF6BF731A400280704721B114
:10129000828B42F48062828304E0828B4FF6FF33BC
:1012A0001A408283704730B5002400230C110125B9
:1012B000A540ABB21AB185881D43858002E08588C0
:1012C0009D43858030BD1AB183880B43838002E043
:1012D00083888B438380704781817047014688896A
:1012E00070474FF6FF62914204D0028842F4807248
:1012F000028004E002884FF6FF631A4002807047C4
:1013000021B1828842F00402828004E082884FF694
:10131000FB731A408280704702884FF2FF731A40B5
:10132000028002880A4302807047018841F480519C
:101330000180704721B1028842F40052028004E02B
:1013400002884DF6FF731A40028070470246002063
:10135000012901D0108B00E0908A70470146088A6D
:101360007047B1F5804F04D1028842F48042028078
:1013700004E002884BF6FF731A4002807047024671
:10138000002013890B400BB1012000E000207047C2
:10139000CA4302817047F0B50246002000240023B2
:1013A000002501F00F070126BE40B4B20B11012643
:1013B0009E40B3B2968806EA03051689264016B108
:1013C0000DB1012000E00020F0BD10B5002201F0B9
:1013D0000F040123A3409AB2D343038110BD000040
:1013E0000030014000380040003C004010B5044689
:1013F000FB48844209D101218803FFF727FE002121
:101400004FF48040FFF722FE32E0F648844209D1D3
:1014100001214804FFF727FE00214FF40030FFF7B9
:1014200022FE25E0F048844209D101218804FFF71B
:101430001AFE00214FF48020FFF715FE18E0EB485C
:10144000844209D10121C804FFF70DFE00214FF4A9
:101450000020FFF708FE0BE0E548844208D1012197
:101460000805FFF700FE00214FF48010FFF7FBFD99
:1014700010BD2DE9F04786B005460E460024A24671
:1014800000BFA1460027B08900B100BF2F462C8ABB
:101490004CF6FF700440F08804432C82AC894EF671
:1014A000F3100440B088318908437189084304432C
:1014B000AC81AC8A4FF6FF400440B0890443AC8253
:1014C00001A8FFF73CFDC648874202D1DDF810A015
:1014D00001E0DDF80CA0A88900F4004040B10AEB5F
:1014E000CA0000EB0A1031684900B0FBF1F807E0D0
:1014F0000AEBCA0000EB0A1031688900B0FBF1F872
:101500006420B8FBF0F004012009642101FB10897C
:10151000A88900F4004040B1322000EBC900B0FBC4
:10152000F1F000F00700044308E0322000EB09105E
:101530006421B0FBF1F000F00F0004432C8106B0F1
:10154000BDE8F0874FF41651016000218180C18011
:1015500001810C21418100218181704710B5024633
:101560000020108A4FF2FF0318400B884C88234359
:101570008C882343CC8823431843108210BD00215C
:10158000018041808180C180704721B1828942F40D
:101590000052828104E082894DF6FF731A408281F5
:1015A0007047F0B50346002400260025002040F6D1
:1015B0006A17B94200D100BF1846C1F3421401F0C6
:1015C0001F06012707FA06F5012C01D10C3004E0B3
:1015D000022C01D1103000E014301AB107682F43FB
:1015E000076002E00768AF430760F0BD1AB1838A65
:1015F0000B43838202E0838A8B4383827047028A93
:101600004FF6F0731A400282028A0A430282704740
:1016100082894FF2FF731A40828182890A43828154
:10162000704721B1828942F00202828104E08289FE
:101630004FF6FD731A4082817047028A4FF6DF73BE
:101640001A400282028A0A430282704721B1028A4A
:1016500042F48042028204E0028A4BF6FF731A4091
:1016600002827047C1F30802828070470146888871
:10167000C0F308007047818941F001018181704702
:10168000028BD2B20283028B42EA012202837047AC
:10169000028B02F47F420283028B0A43028370476B
:1016A00021B1828A42F02002828204E0828A4FF6CF
:1016B000DF731A408282704721B1828A42F01002A1
:1016C000828204E0828A4FF6EF731A40828270476A
:1016D00021B1828A42F00802828204E0828A4FF6B7
:1016E000F7731A408282704721B1828942F4004226
:1016F000828103E08289C2F30E028281704721B1A8
:10170000828A42F40062828204E0828A4FF2FF738E
:101710001A4082827047828A4FF6FB731A40828297
:10172000828A0A438282704721B1828A42F0020291
:10173000828204E0828A4FF6FD731A4082827047EB
:1017400002460020B1F5007F00D100BF13880B4096
:101750000BB1012000E00020704701F40072B2F5E7
:10176000007F00D100BFCA430280704770B50246B7
:10177000002400230025002040F66A16B14200D163
:1017800000BFC1F3421501F01F03012606FA03F35F
:10179000012D02D19689334006E0022D02D1168A2E
:1017A000334001E0968A33400C12012606FA04F415
:1017B0001688344013B10CB1012000E0002070BD48
:1017C00010B50022002340F66A14A14200D100BFE8
:1017D0000A1201249440A3B2DC43048010BD00002F
:1017E000003801400044004000480040004C0040E8
:1017F0000050004010B571490968486980470228C7
:1018000020D0032802D004286AD15CE050206C4923
:101810000870492048704E2088704720C870042402
:1018200004E0201F66490855601CC4B26548008862
:101830008442F6DB614800680269624801886048BA
:1018400090474EE05D4800685E49C2685C4890473A
:101850005C480088002835DD04225B49584802F0C6
:1018600021FF18BB5948006808B9012000E000209A
:1018700056490860502052490870492048704E204F
:1018800088704720C870042404E0201F4C49085584
:10189000601CC4B24B4800888442F6DB47480068AD
:1018A000026948480188464890470BE004224849AD
:1018B000434802F0F7FE28B900204649087001208D
:1018C000454908600DE04448006808B9012000E07F
:1018D000002041490860394909688868804700E06C
:1018E00000BF00BF10BD10B5344909684869804782
:1018F000022802D0042841D133E030480068314941
:10190000C2682F4890472F480088002828DD04220D
:101910002F492B4802F0C6FE10BB2C48006808B9BE
:10192000012000E000202949086050202449087067
:101930004F2048704E2088704720C870042404E06F
:10194000201F1F490855601CC4B21E4800888442ED
:10195000F6DB1A48006802691A480188184890475F
:101960000DE01D48006808B9012000E000201A4978
:101970000860124909688868804700E000BF00BF1E
:1019800010BD00F0B6F802F007FD00F00FFA00F00D
:1019900037FA0A49086009680868804707490968F2
:1019A0008868804708E00B480078012802D1FFF7DB
:1019B00021FF01E0FFF797FFF5E700002C00002072
:1019C000E000002028000020515A0008A001214218
:1019D0004C5A00082A000020A801224200BFFEE75E
:1019E000704700BFFEE700BFFEE700BFFEE700BF95
:1019F000FEE770477047704712480068401C114965
:101A00000860704710B540F225510F48FFF7AEFE51
:101A100038B10D48FFF72AFEC4B221460BA003F0EF
:101A2000ADF910BD10B540F225510948FFF79EFEF3
:101A300038B10748FFF71AFEC4B2214603A003F0ED
:101A40009DF910BDD400002000380140256300003E
:101A50000044004008B501210820FFF7DDFA01200D
:101A6000ADF8000003208DF8020010208DF803006F
:101A700069463B48FFF714F801213948FFF7BFF8E2
:101A800008BD10B54FF4A060FEF75EFC10BD10B5A8
:101A9000FFF754F94FF48030FFF770F9FFF7ADF915
:101AA0000446012C24D11020FEF7D0FC0220FEF7C2
:101AB000B9FC0020FFF7E7F90020FFF7F6F9A002D4
:101AC000FFF7EAF94FF4E0112004FFF7BFF9012016
:101AD000FFF7C8F900BF3920FFF773F90028FAD0E3
:101AE0000220FFF7C2F900BFFFF7C8F90828FBD1B1
:101AF00010BD10B5FFF7CBFFFFF7C3FF00F034F8C0
:101B000001210846FFF788FA01211648FFF799F8E6
:101B1000FFF7A0FF10BDC2684A40C260704709E0ED
:101B2000082100BF0A00A1F10101FBD100BF00BFE5
:101B300000BF00BF0200A0F1010398B2F0D17047CE
:101B4000002107E041F60E7100BF0A00A1F1010378
:101B500099B2FAD10200A0F1010398B2F2D1704714
:101B6000000C01400002300000B587B0012144F2B2
:101B70000400FFF751FA4FF40070ADF81800182078
:101B80008DF81B0003208DF81A0006A97848FEF78F
:101B900087FF4FF48060ADF8180004208DF81B001B
:101BA00006A97348FEF77CFF25208DF8140000205D
:101BB0008DF815008DF8160001208DF8170005A886
:101BC000FEF7C7FB4FF4E13001900020ADF80800AC
:101BD000ADF80A00ADF80C00ADF810000C20ADF81F
:101BE0000E0001A96348FFF744FC012240F2255191
:101BF0006048FFF7D6FC01215E48FFF7C6FC5EA0F7
:101C000003F0BCF807B000BD00B587B00121042087
:101C1000FFF702FA01214804FFF70BFA0420ADF8A0
:101C2000180018208DF81B0003208DF81A0006A953
:101C30004F48FEF735FF0820ADF8180004208DF856
:101C40001B0006A94A48FEF72BFF26208DF814003A
:101C500000208DF815008DF8160001208DF8170072
:101C600005A8FEF776FB4FF4E13001900020ADF8B7
:101C70000800ADF80A00ADF80C00ADF810000C201B
:101C8000ADF80E0001A94248FFF7F3FB012240F234
:101C900025513F48FFF785FC01213D48FFF775FCC2
:101CA0003CA003F06BF807B000BD70B504460D46CC
:101CB0000BE021782F48FFF7D5FC00BF40212D48CD
:101CC000FFF73EFD0028F9D0641C2800A5F10101B2
:101CD000CDB2EED170BDC0F30801264A121D1180AD
:101CE00000BF2449098801F040010029F9D070475C
:101CF00010B50446234603E01878FFF7ECFF5B1CA1
:101D000018780028F8D110BD70B504460D46294654
:101D10002046FFF7A7FC00BF80212046FFF710FDFB
:101D20000028F9D000BF40212046FFF709FD002818
:101D3000F9D070BD70B504460D46E1B20D48FFF70D
:101D400091FC00BF40210B48FFF7FAFC0028F9D0B6
:101D5000204670BD10B5044600BF20210548FFF79E
:101D6000EFFC0028F9D00348FFF780FC10BD00000D
:101D700000080140003801400D0A20B4AEBFDA313E
:101D8000B3F5CABCBBAFCDEAB3C9200D0A00000051
:101D9000004400400D0A20B4AEBFDA32B3F5CABC2D
:101DA000BBAFCDEAB3C9200D0A00000008B5012180
:101DB0001420FFF731F94FF48070ADF800001020C7
:101DC0008DF8030003208DF8020069460A48FEF7EB
:101DD00067FE4FF480710848FEF70FFF4FF48060F4
:101DE000ADF8000069460548FEF75AFE4FF48061E1
:101DF0000248FEF702FF08BD000801400010014044
:101E0000074808490860084848600848886008484A
:101E1000C8600848086108484861084670470000E3
:101E2000151F0008F0000020E71E0008052000082C
:101E30001D2000083D2000088B20000810B5044636
:101E400097480078A04200D110BD9548047095488D
:101E50000470007801282BD1002000F041FE924848
:101E60000068407800F07F0040F080008E490968EB
:101E700048708D4800684178012002F078FB01200D
:101E800000F02EFE00208849096881F83D0086494F
:101E9000096881F83E000222834801683D314020F4
:101EA00002F047FB6F228149012002F068FB18E035
:101EB000002000F015FE7C480068407800F07F00AC
:101EC000794909684870784800684178012002F033
:101ED0004EFB012000F004FE6F227449012002F045
:101EE0004EFB00BFB0E710B5012002F0F8FA7048D1
:101EF000046800BF6E480068001BFBD0002002F0A1
:101F0000EEFA6B48046800BF69480068001B0628A9
:101F1000FAD310BD08B56548401E6649086062499D
:101F2000086002F09BFAFFF7DEFF6946062002F028
:101F300045FB05E060A002F021FF6420FFF700FEF2
:101F40009DF800006C28F5D101205649087008461C
:101F50000078FFF773FF00F0F7FD08BD51480078E7
:101F6000704710B504464F48007818B9204601F074
:101F700039FD02E0204600F0B3FD10BD10B5494820
:101F8000007810B901F019FE10BD00F04FFEFBE71C
:101F900010B54448007810B901F06EFE10BD00F095
:101FA0005EFEFBE710B53F48007810B901F058FE1F
:101FB00010BD00F048FEFBE710B53A48007810B9B4
:101FC00001F06FFE10BD00F06CFEFBE710B5354868
:101FD000007808B900BFFEE700F066FE10BD10B53E
:101FE0003048007810B901F05FFE10BD00F060FECF
:101FF000FBE710B52B48007810B901F058FE10BD72
:1020000000BFFEE710B52748007818B9012001F09D
:1020100051FE02E0012000F04EFE10BD70B50446F6
:102020000D462048007820B92946204601F04AFE96
:1020300003E02946204600F046FE70BD70B5044618
:102040000D461848007820B92946204601F049FE7F
:1020500003E02946204600F045FE70BD10B511484A
:10206000007810B901F08DFE10BD00F049FEFBE7CD
:1020700010B504460B48007818B9204601F01AFE46
:1020800002E0204600F017FE10BD10B505480078AC
:1020900010B901F079FE10BD00F035FEFBE700003D
:1020A00031000020300000205400002009010020F1
:1020B000D4000020940000204861726420535049ED
:1020C00020457272210D0A002DE9F0410446FB48BB
:1020D0000460204602F08EFC05460022F84B02F018
:1020E00009FC074602F0B2FC0446200CF5490968D9
:1020F0008871200AF3490968C871F24909680C72AD
:102100000322F0480168891D062002F012FABDE89A
:10211000F0812DE9F0410322EA480168891D06207B
:1021200002F02DFAE748006880790004E549096863
:10213000C97940EA0120E3490968097A0843DF497F
:102140000860086802F056FC06460022DC4B02F0EC
:102150005FFB044602F07AFCD84908600846006834
:10216000BDE8F08138B56946092002F027FAFFF78B
:10217000D0FF04460020D34909684872D14800685E
:10218000417A092002F0F3F9CF48FFF79DFFCD48CF
:1021900001683B313B2002F011FACA48006890F810
:1021A0003B0000F0BF0040F04000C649096881F8DC
:1021B0003B00C448006890F83B103B2002F0D7F980
:1021C000C04801683B313B2002F0F8F905E0BD480A
:1021D00001683B313B2002F0F1F9BA48006890F801
:1021E0003B0000F020002028F1D09DF80000B54908
:1021F00009684872B3480068417A092002F0B7F9CB
:102200002046FFF761FF38BD2DE9F0410446AB4899
:102210004460204602F0EEFB05462A460B460020AD
:10222000AA4902F067FB074602F010FC84B2200ABC
:10223000A44909688870A3490968CC700222A148A2
:102240000168891C104602F074F9BDE8F0812DE99F
:10225000F04102229B480168891C104602F08FF968
:1022600098480068C07897490968897840EA012051
:1022700092494860486802F0BDFB064632460B466C
:102280000020924902F036FB044602F0DFFB80B2E8
:102290008A49486008464068BDE8F0812DE9F04170
:1022A00004468648846087480168091D042002F0BE
:1022B00085F9204602F09EFB05460022804B02F085
:1022C00019FB074602F0C2FB84B27E480068007921
:1022D00000F0C000210A21F0C001084379490968D3
:1022E0000871784909684C71022276480168091D15
:1022F000042002F01EF9BDE8F0812DE9F041022230
:1023000070480168091D042002F039F96D48006821
:1023100000796FF0C00101EA00206A490968497933
:10232000084366498860886802F064FB064600221C
:10233000634B02F06DFA044602F088FB80B25F49FD
:10234000886008468068BDE8F08110B504465D48A5
:1023500001680931092002F031F95A4801684D310C
:102360004D2002F02BF957480068407A00F08000B9
:10237000802841D15348006890F84D0000F0870054
:1023800087281CD1052C00DA0524142C00DD142428
:102390004C480068407A00F08F0040F070004949D6
:1023A0000968487247480068407A00F0F000611FF1
:1023B00001F00F0108434349096848723AE0022CD2
:1023C00000DA0224112C00DD11243E480068407A16
:1023D00000F08F0040F070003A49096848723948AF
:1023E0000068407A00F0F000A11E01F00F010843E0
:1023F0003449096848721DE0B4F1FF3F01DA4FF03B
:10240000FF340E2C00DD0E242E480068407A00F0C8
:102410008F0040F070002B49096848722948006815
:10242000407A00F0F000611C01F00F0108432549DB
:102430000968487223480068417A092002F097F839
:102440001E48047310BD10B51E48016809310920EB
:1024500002F0B4F81B4801684D314D2002F0AEF88F
:1024600018480068407A00F08000802819D115488B
:10247000006890F84D0000F00700072808D11148C7
:102480000068407A20F0F000401D0C49087310E00D
:102490000C480068407A20F0F000801C074908735F
:1024A00007E008480068407A20F0F000401E034929
:1024B0000873024890F90C0010BD0000780000205D
:1024C00080844E4094000020008F423380847E41FF
:1024D0002DE9FF5F83468A46002018BB0AF10200FF
:1024E00002F077FA064632460B4600204FF0804154
:1024F00002F060FDCDE90001584602F07BFA80460B
:10250000DDE9002302F084F902460B46CDE9020121
:102510000020FD4902F0EEF9044602F097FA04B0FB
:10252000BDE8F09F0AF1030002F053FA02460B46A1
:10253000CDE9000100204FF0804102F03BFDCDE9E4
:102540000201584602F056FA0646DDE9022302F07F
:102550005FF9044622460B460020EB4902F0CAF917
:10256000804602F073FADAE72DE9F74F88B08A4621
:1025700093460024A14600BF0027DFF8908300BFE8
:1025800072E04FF010096AE0002008BBA01C02F0C6
:1025900020FA02460B46CDE9000100204FF08041B1
:1025A00002F008FDCDE90401484602F023FACDE926
:1025B0000201DDE9042302F02BF902460B46CDE9C6
:1025C00006010020D04902F095F905460E4620E0AC
:1025D000E01C02F0FEF902460B46CDE900010020A6
:1025E0004FF0804102F0E6FCCDE90401484602F0DC
:1025F00001FACDE90201DDE9042302F009F90246FE
:102600000B46CDE906010020BF4902F073F90546EB
:102610000E46089802F0EEF92A463346CDE9040149
:1026200002F0F3F821F000413A464346CDE90601B5
:1026300002F026FA0FD2089802F0DCF92A46334657
:10264000CDE9060102F0E1F821F0004807468AF8DA
:1026500000908BF8004009F1040000F0FF09B9F187
:10266000180F91DD601CC4B2082C8ADB0BB0BDE8EA
:10267000F08F7CB504460E46154600200190009070
:10268000A34800681230844203D106F06000207035
:1026900001E0002020706A4601A92846FFF764FF88
:1026A0009DF80400102804D014280AD018281CD142
:1026B00011E020789DF8001001F007010843207018
:1026C00014E020789DF8001001F0070141F00801A6
:1026D000084320700AE020789DF8001001F00701FF
:1026E00041F010010843207000E000BF00BF88489F
:1026F00000681230844206D12178122001F037FFA1
:102700008448056105E02178132001F030FF8148FD
:1027100045617CBD70B50446002500262078C0F3D5
:10272000C10020B1012804D0022806D103E0102600
:1027300004E0142602E0182600E000BF00BF207865
:1027400000F007013046FFF7C3FE054670480068F9
:102750001230844203D128466E490D6170BD28466F
:102760006C494D61FAE710B504466948016830319B
:10277000302001F023FF6648006890F8300000F038
:10278000EF0040EA04106249096881F830006048AF
:10279000006890F83010302001F0E9FE5D480476C2
:1027A00010BD10B55A4801683031302001F006FFE5
:1027B0005748006890F83000C0F30010554908767B
:1027C0000846007E10BD10B50446514801680D3121
:1027D0000D2001F0F3FE4E480068407B00F0EF0052
:1027E00040EA04104A490968487349480068417B37
:1027F0000D2001F0BCFE4748447610BD10B544489A
:1028000001680D310D2001F0D9FE41480068407B80
:10281000C0F300103F4948760846407E10BD10B511
:1028200004463B48006880F832403948006890F818
:102830003210322001F09BFE3648847610BD10B570
:10284000334801683231322001F0B8FE3048006868
:1028500090F832002F4988760846807E10BD10B56A
:1028600004462B4801684D314D2001F0A7FE284851
:1028700001680931092001F0A1FE25480068407A6D
:1028800000F08000802807D1012C0AD18720204940
:10289000096881F84D0004E084201D49096881F829
:1028A0004D001B48006890F84D104D2001F05FFE70
:1028B00010BD10B5164801684D314D2001F07EFE67
:1028C0001348006890F84D0000F00700072801D178
:1028D000012010BD0020FCE710B504460C4801683B
:1028E0000931092001F06AFE09480068407A00F0C9
:1028F0007F00204306490968487205480068417A0C
:10290000092001F034FE10BD80847E41D012634165
:10291000940000207800002010B56F48016809314C
:10292000092001F04BFE6C480068407A20F07F00DF
:1029300010BD10B50446684801680A310A2001F04C
:102940003DFE65480068807A00F0F00024F0F00158
:1029500008436149096888725F480068817A0A20E3
:1029600001F005FE10BD10B55B4801680A310A2070
:1029700001F024FE58480068807A20F0F00010BD75
:1029800010B50446544801680E310E2001F016FEC1
:10299000002C04DA1F2020EA0404641C64424E4820
:1029A0000068807B04F01F0140EAC1004A490968C1
:1029B000887349480068817B0E2001F0D8FD10BD66
:1029C00010B5454801680E310E2001F0F7FD424870
:1029D0000068807BC41004F01000102804D11F2070
:1029E00020EA0404641C6442204610BD70B5002433
:1029F000394801683B313B2001F0E0FD3648006872
:102A000090F83B0000F0FE003349096881F83B0074
:102A10003148006890F83B103B2001F0A8FD2E489B
:102A20000168491C012001F0C9FD2B480068457868
:102A30000420294909684870274800684178012026
:102A400001F095FD2548066800BF24480068801BFA
:102A5000FBD0214801683B313B2001F0AFFD1E480F
:102A6000006890F83B0000F0FE00401C1A4909681D
:102A700081F83B001848006890F83B103B2001F0BB
:102A800076FD154801683C313C2001F097FD124865
:102A9000006890F83C0000F07F040F48006890F850
:102AA0003C0000F08000802801D1604244B22946F9
:102AB000012001F05CFD204670BD10B50446FFF713
:102AC00095FF201A40B210BD10B50446FFF78EFFE7
:102AD000204440B210BD000094000020D40000202B
:102AE00070B504460025FD480068407820F0F800E5
:102AF000FB4908700846007884421CD0032C01D1A1
:102B0000012500E00025F7480078854204D0F5480B
:102B10000570284601F095FDF0480068407800F007
:102B2000F8002043ED4909684870EC480068417896
:102B3000012001F01CFD70BD10B5E84801683F316F
:102B4000422001F03BFD10BD10B50020E6490870A1
:102B5000FFF7F2FF6F22E549012001F010FD202070
:102B6000DE49096808736F22E049012001F0E1FCA9
:102B7000DF49086800F0A6FBDD49887900F0ECFC2D
:102B8000DB49C87900F021FDD949087A00F04AFDF7
:102B9000D749487900F09CFCD549487A00F0A6FD59
:102BA00040F2FF3000F0AEFED149087E00F001FE99
:102BB000012000F0DBFECE480068CE4988420DD9E6
:102BC000002000F053FE002000F013FE0E20C84944
:102BD000087191F9040000F0C3FB0CE0802000F0C4
:102BE00045FE012000F005FE1420C149087191F94D
:102BF000040000F0B5FB0120FFF772FF10BD10B517
:102C0000012001F06CFCBC48046800BFBA480068B1
:102C1000001BFBD0002001F062FCB748046800BF35
:102C2000B5480068001B0628FAD310BD10B5AB48A4
:102C30000168491C012001F0C1FCA84800684078E7
:102C400020F0F80010BD10B5A44801680C310C202C
:102C500001F0B4FCA1480068007B400910BD70B5CC
:102C60009E4801681B311B2001F0A8FCA0480068A9
:102C7000A04988420AD299490968C87E01F0BAFE83
:102C8000044600229D4B01F01CFD70BD934909686C
:102C9000C87E01F0AFFE04460022994B01F011FD01
:102CA000F3E7984800787047974890F9000070471C
:102CB000964903C970478C490870704700B50120D8
:102CC000FFF7F9FF00BD70B505460C469048008837
:102CD000208000208E49088022888E49284601F0F5
:102CE000BDFC70BD70B504460D468B48058002885A
:102CF0002146884801F0B2FC05207B49087070BD70
:102D00007948007870472DE9F84F4FF0010A76486E
:102D100000780B2874D2DFE800F0060774A8E0DF23
:102D2000DEDD73DCDB00ACE20120FFF7D9FE9D2085
:102D30006A490968487469480068417C112001F0BB
:102D400016FC6B48C07A012816D16948007B63499C
:102D5000096881F82400614801681C311C2001F0D9
:102D60002DFC5E490968097F01F03F016B4A52F86A
:102D7000210000F0A7FA04E000205849096881F812
:102D800024005648006890F82410242001F0EFFB3E
:102D900000205249096881F83D005049096881F8CE
:102DA0003E0002224D4801683D31402001F0C1FB48
:102DB0004F48807A012803D10620FFF791FE0EE0EC
:102DC00046480068C07B4549096848734348006825
:102DD000417B0D2001F0CBFB0520FFF781FE4FF476
:102DE00080714C4801F053FC414840694C490860EF
:102DF000414800684B49086002203B49087040E2A6
:102E00003EE201F0F6FB01281ED13B48006845492F
:102E100008603748C07A01280FD1304801681C315A
:102E20001C2001F0CBFB2D490968097F01F03F010F
:102E30003A4A52F8210000F045FA4021122001F0F0
:102E400096FB0320284908702948807A01280BD175
:102E50002948006833490968401A3149096888429D
:102E600002D90420204908700BE21C480168123185
:102E7000122001F0A3FB19480068807C00F02000BC
:102E800020280ED12021122001F071FB1848807AF1
:102E9000012802D11449087002E00220124908708A
:102EA000EFE16946192001F089FB9DF8000000F070
:102EB0008000C8B39DF80000C043401CC0F38500EB
:102EC0001149087008460078404240B2087031E06D
:102ED000D5E1B0E1A6E199E11EE117E1540000203F
:102EE0007600002077000020580000200901002013
:102EF00038000020008F4233D4000020008064C0DE
:102F000000A063C0680000205C000020600000207A
:102F10005A0000207801002074000020585A000850
:102F2000700000206C000020FFE79DF80000800882
:102F3000D6490870D64801681A311A2001F03EFBC4
:102F4000D4480068D44988422FD2D04890F9000074
:102F5000002818DACD4890F9000001F03AFD044647
:102F60000D46CB490968887E01F044FD8046002269
:102F7000CA4B01F0A6FB064622462B4601F0A1FBF8
:102F8000C74A03C240E0C2490968887E01F032FDA9
:102F90000646C44AC44B01F03BFC04460022BF4B2A
:102FA00001F08FFBBE4A03C22EE0B84890F9000042
:102FB000002818DAB54890F9000001F00AFD04462F
:102FC0000D46B3490968887E01F014FD8046002251
:102FD000B64B01F076FB064622462B4601F071FB0C
:102FE000AF4A03C210E0AA490968887E01F002FDD9
:102FF0000646AC4AAC4B01F00BFC04460022AB4B3E
:1030000001F05FFBA64A03C2A248807A01282FD1B3
:103010009F480068C07B9E49096848739C480068C7
:10302000417B0D2001F0A3FA9A48407A01280DD186
:103030009748006890F822009D49088094480068ED
:1030400090F822109B4801F0CBFA52E090480168BA
:103050001331132001F0B2FA8D480068C07C944906
:1030600008808B480068C17C924801F0B9FA40E0C2
:10307000874801681031102001F0A0FA8548407A95
:10308000012819D18248006890F8220088490880F8
:103090007F480068007C7E49096848737C48006866
:1030A000417B0D2001F063FA7948006890F8221006
:1030B000804801F095FA1CE075480168133113202F
:1030C00001F07CFA72480068C07C79490880704839
:1030D0000068007C6E49096848736D480068417B50
:1030E0000D2001F044FA6A480068C17C714801F083
:1030F00077FA6848807A012802D16F49087002E0A7
:1031000002206D4908704FF0020ABAE001206A49B6
:1031100008704FF0030AB4E00120FFF7E1FC5D48BE
:10312000C07A01281AD1F5205949096848745948CC
:10313000007B5749096881F82400554801681C3113
:103140001C2001F03BFA52490968097F01F03F0158
:103150005A4A52F8210000F0B5F808E0F7204C492F
:103160000968487400204A49096881F824004848E1
:10317000006890F82410242001F0F9F94448006810
:10318000417C112001F0F3F94D480078404909686D
:1031900081F822003E48006890F82210222001F0B9
:1031A000E6F900203A490968887339480068817B4C
:1031B0000E2001F0DCF936480068807B344909684C
:1031C000487333480068417B0D2001F0D0F9304846
:1031D000006890F82210374801F0F9F941202C4995
:1031E000096881F83D0040202949096881F83E00BE
:1031F0000222274801683D31402001F09AF903205E
:10320000FFF76EFC06202C4908703AE001F0F1F956
:10321000012806D10821122001F0A9F9072026492A
:1032200008702EE00120FFF75BFC002022490870A7
:103230004FF0040A25E00120FFF752FCFA20144960
:103240000968487412480068417C112001F08FF928
:1032500000200F49096881F83D000D49096881F88F
:103260003E0002220A4801683D31402001F061F928
:103270000720FFF735FC0A200F49087001E000E045
:1032800000BF00BF5046BDE8F88F00005C00002082
:103290005400002038000020008F4233008064C0BA
:1032A000600000201B9E5E29CB10F13F00A063C090
:1032B0005A0000207801002058000020585A0008C9
:1032C000740000202DE9F0410446FA4804602046CD
:1032D00001F090FB05460022F74B01F00BFB07467F
:1032E00001F0B4FB0446200CF44909688871200AF7
:1032F000F2490968C871F14909680C720322EF4864
:103300000168891D062001F014F9BDE8F0812DE95E
:10331000F0410322E9480168891D062001F02FF9D8
:10332000E648006880790004E4490968C97940EA00
:103330000120E2490968097A0843DE490860086803
:1033400001F058FB06460022DB4B01F061FA04460F
:1033500001F07CFBD749086008460068BDE8F081B1
:1033600010B50446D54801680931092001F026F955
:10337000D248016849314D2001F020F9CF4800685A
:10338000407A00F08000802841D1CC48006890F855
:10339000490000F0870087281CD1052C00DA05249D
:1033A000142C00DD1424C5480068407A00F08F001A
:1033B00040F07000C14909684872C0480068407A0E
:1033C00000F0F000611F01F00F010843BB490968DC
:1033D00048723AE0022C00DA0224112C00DD11249C
:1033E000B6480068407A00F08F0040F07000B349A2
:1033F00009684872B1480068407A00F0F000A11EE8
:1034000001F00F010843AD49096848721DE0B4F1AD
:10341000FF3F01DA4FF0FF340E2C00DD0E24A748E9
:103420000068407A00F08F0040F07000A3490968FE
:103430004872A2480068407A00F0F000611C01F078
:103440000F0108439D49096848729C480068417A09
:10345000092001F08CF89748047110BD10B5974809
:1034600001680931092001F0A9F89448016849313F
:103470004D2001F0A3F891480068407A00F08000E8
:10348000802819D18D48006890F8490000F00700A5
:10349000072808D189480068407A20F0F000401DD4
:1034A0008449087110E085480068407A20F0F000F7
:1034B000801C8049087107E080480068407A20F04D
:1034C000F000401E7B4908717A4890F9040010BD55
:1034D00010B50446794801681D311D2001F06EF8D1
:1034E00076480068407F64F31F1074490968487784
:1034F00072480068417F1D2001F039F86D48447121
:1035000010BD10B56D4801681D311D2001F056F841
:103510006A480068407F0011664948710846407952
:1035200010BD10B50446654801683031312001F006
:1035300045F86248006890F8300000F0F800204339
:103540005E49096881F830005C48006890F83010E6
:10355000312001F00CF810BD10B504460C2C01DD33
:103560000C2402E0062C00DA0624062C03D10520E8
:10357000FFF7D7FF02E00320FFF7D3FF4F480168B2
:103580001E311E2001F01AF84C480068807F64F359
:103590001F104A490968887748480068817F1E20C3
:1035A00000F0E5FF4348847110BD10B54348016841
:1035B0001E311E2001F002F840480068807F001193
:1035C0003C4988710846807910BD10B504463B48D7
:1035D00001681D311D2000F0F1FF38480068407F70
:1035E00000F0F10040EA4400344909684877334864
:1035F0000068417F1D2000F0BAFF2E48C47110BD45
:1036000010B52E4801681D311D2000F0D7FF2B4852
:103610000068407F20F0F10040102649C87108463C
:10362000C07910BD10B50446244801681E311E2023
:1036300000F0C4FF21480068807F00F0FB0040EAF2
:1036400084001E49096888771C480068817F1E2015
:1036500000F08DFF1748047210BD10B50446022219
:10366000164801682031202000F089FF200A134904
:10367000096881F820001149096881F82140022277
:103680000E4801682031202000F053FF10BD10B516
:1036900002220A4801682031202000F070FF07480C
:1036A000006890F821100548006890F8200041EA71
:1036B000002010BD3800002080844E4054000020BF
:1036C00010B5C64801681E311E2000F077FFC348C0
:1036D0000068807F00F00400401008B1012000E085
:1036E0000020BF4908720846007A10BD10B5044694
:1036F000BA4801681D311D2000F060FFB74800681E
:10370000407F00F0FE002043B44909684877B34881
:103710000068417F1D2000F02AFFB148447210BDAF
:1037200010B5AE4801681D311D2000F047FFAB48C1
:103730000068407F00F00100A94948720846407ABD
:1037400010BDA74988727047A548807A7047A44980
:10375000C8727047A248C07A704710B504469F48A7
:10376000006880F824409D48006890F824102420C8
:1037700000F0FDFE9A48047310BD10B5974801682B
:103780002431242000F01AFF9448006890F82400A7
:10379000934908730846007B10BD91490861704742
:1037A0008F48006970478E49486170478C4840696E
:1037B000704710B504468948006880F82240874861
:1037C000006890F82210222000F0D1FE8448047690
:1037D00010BD10B5814801682231222000F0EEFEB4
:1037E0007E48006890F822007D4908760846007EF1
:1037F00010BD10B504467948016849314D2000F0EC
:10380000DDFE764801680931092000F0D7FE7348D3
:103810000068407A00F08000802807D1012C0AD18E
:1038200087206E49096881F8490004E084206B49CB
:10383000096881F849006948006890F849104D20EE
:1038400000F095FE10BD10B56448016849314D2067
:1038500000F0B4FE6148006890F8490000F00700ED
:10386000072801D1012010BD0020FCE710B5044657
:103870005A4801680931092000F0A0FE5748006845
:10388000407A00F07F002043544909684872534849
:103890000068417A092000F06AFE10BD10B54F485B
:1038A00001680931092000F089FE4C480068407A1F
:1038B00020F07F0010BD10B50446484801680A3169
:1038C0000A2000F07BFE45480068807A00F0F00096
:1038D00024F0F00108434149096888723F480068B4
:1038E000817A0A2000F043FE10BD10B53B48016804
:1038F0000A310A2000F062FE38480068807A20F021
:10390000F00010BD10B504460222344801681E3193
:103910001E2000F034FE31480068807F00F0FC007B
:103920006FF0FC0101EA242108432C4909688877DB
:103930002A490968CC770222284801681E311E20D6
:1039400000F0F7FD10BD10B50222244801681E31B9
:103950001E2000F014FE21480068C07F1F4909683E
:10396000897F21F0FC0140EA012010BD10B504461A
:103970001A4801682631262000F020FE174800680A
:1039800090F8260000F0F70040EAC40013490968E7
:1039900081F826001148006890F82610262000F0D3
:1039A000E6FD10BD10B50D4801682631262000F057
:1039B00005FE0A48006890F82600C0F3C00010BD5C
:1039C00010B5064801683031312000F0F7FD03489A
:1039D000006890F8300000F0070010BD540000208F
:1039E0003800002070B504460025F748006840788C
:1039F00020F0F800F54908700846007884421CD091
:103A0000032C01D1012500E00025F1480078854212
:103A100004D0EF480570284600F013FEEA4800681D
:103A2000407800F0F8002043E74909684870E6480C
:103A300000684178012000F09AFD70BD10B5E248A1
:103A400001684231422000F0B9FD10BD10B50020E0
:103A5000E0490870FFF7F2FF6F22DF49012000F014
:103A60008EFD0020D84909684870D7480068417821
:103A7000012000F07CFD2020D34909688872D248DB
:103A80000068817A0A2000F072FD2020CE49096882
:103A90000873CD480068017B0C2000F068FDCF481A
:103AA000407E012804D11E20C7490968487303E0FD
:103AB0000E20C549096848730820C349096881F880
:103AC0002600AA20C0490968C877FF20BE490968B6
:103AD00008749320BC49096881F827006920BA4915
:103AE000096881F828008120B749096881F8290010
:103AF0007E20B549096881F82A009620B2490968F4
:103B000081F82B00B548007E802141EA0010AE49C3
:103B1000096881F83000FEF744FEB048807EAA496B
:103B2000096881F832006F22AB49012000F001FDE5
:103B3000AA490868FEF7C8FAA8494868FEF764FB76
:103B4000A6498868FEF7AAFBA448002102699E489E
:103B500000681230FEF78DFDA048002142699A48A6
:103B600000681330FEF785FD0020FEF709FF9B4833
:103B700000689B4988420DD90020FEF7ADFE002069
:103B8000FEF76DFE0E209549087391F90C00FEF7C3
:103B9000DCFB0CE08020FEF79FFE0120FEF75FFEBD
:103BA00014208E49087391F90C00FEF7CEFB01201A
:103BB000FFF718FFFEF7D6FA10BD10B5824801686E
:103BC000491C012000F0FAFC7F480068407820F092
:103BD000F80010BD2DE9F04702227B4801681D3135
:103BE0001D2000F0CCFC78490968897F764A12686C
:103BF000527F41EA022000F0ECFE804600F007FF11
:103C0000824600F0E6FE06460022764B00F000FEFB
:103C1000044600F0FCFEBDE8F0872DE9F0470222E3
:103C2000694801681B311B2000F0A9FC664909683E
:103C3000097F654A1268D27E41EA022000F0C9FE7F
:103C4000804600F0E4FE824600F0C3FE06460022F5
:103C5000644B00F0DDFD044600F0D9FEBDE8F087BE
:103C600010B5594801680C310C2000F0A7FC5648EB
:103C70000068007B400910BD70B5534801681131E0
:103C8000112000F09BFC50490968487C00F0B2FE0E
:103C9000044600224FF0804300F02CFE81F00041EA
:103CA00070BD514800787047504903C9704750486B
:103CB0000068704747490870704700B50120FFF75A
:103CC000F9FF00BD70B505460C464A4800882080C3
:103CD00000204849088022884749284600F0BEFC59
:103CE00070BD70B504460D464448058002882146E3
:103CF000414800F0B3FC07203649087070BD30B56C
:103D00003148006890F8270000F00700421C2E4858
:103D1000006890F83000C3092B48006890F8300024
:103D200000F0060008B1012000E00020044626480B
:103D3000006890F832102448006890F8300000F0D5
:103D40001000102801D1022000E000200546D01804
:103D500020440844284480B230BD1B48006890F8D5
:103D60002600194B1B6893F8253040EA03211648BA
:103D7000006890F8270000F00700421C881880B205
:103D800070471448007870472DE9F04F8BB0012040
:103D90000990104800780C287ED2DFE800F0060772
:103DA000A3D6FDFCFBFAF9F8F7F67DE206480068B9
:103DB00090F8300000F01000102821D14C2002496A
:103DC000096881F8400020E094000020D000002025
:103DD000D100002099000020090100207800002077
:103DE000008F423380844E40BC000020B000002091
:103DF000B8000020A800002078020020C8000020A1
:103E00000C20FE49096881F84000E120FB4909685F
:103E100081F841000222F94801684031402000F059
:103E200088FB0520FFF7DEFD4FF48071F44800F0B9
:103E30002EFCF449486800F0DDFDCDE90201FFF7F2
:103E40005EFF019000F0D6FD80460022EE4B00F0B0
:103E5000DFFC0646DDE9022300F04CFD0022EB4BBF
:103E6000CDE9040100F0D4FCCDE9060101F07EFDAE
:103E7000089000F0AEFD04460022E54B00F021FC66
:103E8000824600F0E3FD80B2E2490860084600681F
:103E900000EB5000086000E005E208460068DE49DB
:103EA0000860DE480068DE490860DE490860A0203E
:103EB000D249096881F83500D048006890F835107B
:103EC000352000F054FB0020D7490870D74908700E
:103ED000D7490870D7490870D74908800220D749C8
:103EE0000870E1E100BF00BFD0480078B8B9CE4803
:103EF0000078012813D1C9480068CA490968401AE6
:103F0000C549096888420AD90120CC490870BB48D4
:103F10000068407B40F020010D2000F028FBC348E2
:103F2000007888B9C048007870B9C148007858B99D
:103F3000BA480068BA490968401AB649096888420F
:103F400002D90520BD490870AEE1BB480088B0F534
:103F5000807F03DD0620B9490870A5E100F04FFB22
:103F600001285BD1B4480088E8B9B2480078D0B9DC
:103F7000A248006890F8300000F0800080280CD142
:103F80000121AD4800F02CFB0DE086E17FE107E167
:103F900005E1DDE0C9E0B5E0ABE09848006890F8E5
:103FA0003200A5490880A4480088A2490978401A2F
:103FB0009249096891F8351001F03F01884217DDF8
:103FC0008E4A126892F8352002F03F018C4A994BD4
:103FD0001B78D01800F004FB8848006890F8350082
:103FE00000F03F009349097808449249087015E0B1
:103FF000914A12788F4B1B78D21AD1B2804A8D4BDE
:104000001B78D01800F0ECFA8B48007889490978C1
:10401000401A8849097808448649087000F0E9FA8E
:10402000012856D17D4800687D4908608248008893
:1040300090BB8048007878BB7048006890F83000EA
:1040400000F08000802804D101217B4800F0C8FAEC
:1040500005E06A48006890F8320077490880764A9F
:104060001278744B1B78D21AD1B2654A714B1B7807
:10407000D01800F0B5FA704800786E490978401AF7
:104080006C49097808446B49087001206849087038
:1040900004206A4908701CE0FFE7674A1278654B04
:1040A0001B78D21AD1B2564A624B1B78D01800F056
:1040B00097FA614800785F490978401A5D490978A4
:1040C00008445C49087001205949087004205B4984
:1040D00008705748007858B9504800685049096836
:1040E000401A4C490968884202D905205349087092
:1040F000DAE000204F490870012050490870022082
:104100000990D1E000204B4908704B4908803B489A
:104110000068407B40F020010D2000F028FA0120CB
:104120004649087003200990BEE00020414908700C
:104130004149088031480068407B40F020010D2053
:1041400000F015FA01203D49087006200990ABE007
:1041500001202A49096881F8400020202749096880
:1041600081F841000222254801684031402000F0DA
:10417000E0F998202149096881F835001F48006856
:1041800090F83510352000F0F2F90320FFF72AFCF3
:1041900008202A49087000202949087084E083E03B
:1041A00000F02DFA40BB2748008825490978401ABD
:1041B0002549097888420FDD1149214A127888186B
:1041C0002149097800F003FA1D4800781E49097852
:1041D00008441B49087040E01A4A1278184B1B78B3
:1041E000D21AD1B2064A164B1B78D01800F0EFF95C
:1041F00014480078124929E02FE0000094000020C4
:1042000078020020780000200000204000408F400D
:104210000000F03F9C000020A0000020D4000020FF
:10422000C0000020C4000020A4000020A500002041
:10423000A6000020AA000020A8000020990000206D
:10424000AB000020C8000020980000200978401A28
:104250001849097808441749087000F0CAF901287C
:1042600009D115480068154908600A2014490870EA
:104270000120FFF7B7FB1048006810490968401A91
:10428000B0F57A7F02D90B200D4908700CE00020B0
:104290000B4908700420099006E0002008490870C6
:1042A0000520099000E000BF00BF09980BB0BDE8F1
:1042B000F08F0000AB000020D4000020CC000020D4
:1042C0009900002000B587B001210420FCF7A4FE6E
:1042D00001210803FCF7A0FE03208DF8060018203A
:1042E0008DF807002020ADF8040001A92748FCF74D
:1042F000D7FB8020ADF8040001A92448FCF7D0FBCF
:104300004020ADF8040001A92048FCF7C9FB0121B9
:104310000846FCF781FE01211D48FCF792FC0020B5
:10432000ADF808004FF48270ADF80A000020ADF837
:104330000C00ADF80E00ADF810004FF40070ADF8B1
:1043400012002020ADF814000020ADF81600072060
:10435000ADF8180002A90F48FCF7E8FE01210D484E
:10436000FCF789FF07B000BD10B504462146094897
:10437000FCF7B2FF00BF01210648FDF700F8002856
:10438000F9D00448FCF7AAFFC0B210BD00080140F4
:10439000000230000030014070B5224800684FF440
:1043A0007A72B0FBF2F1B1F1807F01D301201DE000
:1043B00021F07F40401E4FF0E022506150170F2245
:1043C000002807DA13071D0E174B00F00F04241FF7
:1043D0001D5503E013071C0E144B1C5400BF002096
:1043E0004FF0E022906107201061002008B100BF6B
:1043F000FEE7FFF767FF70BD0D4A116800BF0C4A6A
:104400001268521A8242FAD370474FF47A7300FB53
:1044100003F1074B1A6800BF054B1B689B1A8B42C0
:10442000FAD370470000002018ED00E000E400E03F
:10443000D400002010B504218648FCF7DEFB0821DB
:104440008448FCF7DCFB10BD10B504218148FCF763
:10445000D6FB08217F48FCF7D0FB10BD08B5012131
:104460001D20FCF7D9FD10208DF8030003208DF8E6
:1044700002001020ADF8000069467648FCF710FBFA
:10448000012210217348FCF7BCFB0420ADF80000AA
:1044900069467048FCF704FB0820ADF80000694647
:1044A0006C48FCF7FDFAFFF7C5FF04208DF8030008
:1044B0002020ADF8000069466748FCF7F1FA40207B
:1044C000ADF8000069466448FCF7EAFA4FF48070E2
:1044D000ADF8000069466048FCF7E2FA08BD38B55F
:1044E0000446012C12D18020ADF8000003208DF885
:1044F000020010208DF8030069465748FCF7D0FAF7
:10450000002280215448FCF77CFB11E08020ADF8AC
:10451000000003208DF8020010208DF8030069468A
:104520004D48FCF7BDFA012280214B48FCF769FB9E
:1045300038BD2DE9F04105460E46174600221021F0
:104540004448FCF75EFB45F08000FFF70DFF0024B8
:1045500004E0305DFFF708FF601CC4B2BC42F8DB2A
:10456000012210213B48FCF74CFBBDE8F08113B55C
:104570000446012201A92046FFF7DBFF1CBD2DE9FF
:10458000F04105460E461746002210213148FCF73F
:1045900038FB05F07F00FFF7E7FE002405E0002070
:1045A000FFF7E2FE3055601CC4B2BC42F7DB0122CB
:1045B00010212848FCF725FBBDE8F08170B50446C2
:1045C0000D46012229462046FFF7D9FF70BD70B580
:1045D00004460D462A4621460020FFF7AAFF70BD7B
:1045E00070B504460D462A4621460020FFF7C7FF56
:1045F00070BD10B520211848FCF7E5FA10BD10B5C4
:1046000040211548FCF7DFFA10BD10B54FF480715A
:104610001148FCF7D8FA10BD10B54FF480610D4871
:10462000FCF7D1FA10BD10B54FF400610948FCF752
:10463000CAFA10BD10B54FF480510648FCF7C3FA12
:1046400010BD10B5044614B1FFF7FEFE01E0FFF700
:10465000F1FE10BD00080140000C014040EA0103DA
:104660009B0703D009E008C9121F08C0042AFAD228
:1046700003E011F8013B00F8013B521EF9D27047EC
:10468000D2B201E000F8012B491EFBD27047002294
:10469000F6E710B513460A4604461946FFF7F0FF41
:1046A000204610BD30B505460020034600E05B1CE7
:1046B000934205D2EC5CC85C201A01D1002CF6D1E3
:1046C00030BD2DE9FE4F804681EA0300C00F0C4645
:1046D000009021F0004123F00045B8EB0200A94111
:1046E00005D24046214690461C460B46024623F022
:1046F0000040104347D0270DC7F30A00C3F30A5107
:104700000290401A019040286BDAC3F3130040F482
:10471000801B0098924620B10023D2EB030A63EB82
:104720000B0B01985946C0F14002504600F0C0F909
:1047300006460D4650465946019A00F0D8F910EB4E
:1047400008006141002487EA115284EAE7731A43A2
:1047500040D0009A62B3019A012A4FEA075215DC51
:10476000001B61EB02014FF0004202EA0752CDE963
:104770000042001C41F5801132462B4600F0D8F96A
:1047800003B0BDE8F08F40462146F9E7001B61EB1E
:104790000201001C41F5801300185B412018A2F5AE
:1047A000001747EB030140EAD570B6196D4111E0DF
:1047B0006D084FEA360645EAC0754FEA0752001BFE
:1047C00061EB0201001C41F5801149084FEA3000FD
:1047D0000019514132462B4603B0BDE8F04F00F0BE
:1047E00098B90098012240000023D0EB020263EB4D
:1047F000E073009821464FEAE074B8EB000061EBEB
:104800000401E9E783F000435BE781F0004158E7EA
:104810002DE9FE4F81EA030404F0004421F0004139
:1048200000944FF0000B23F0004350EA01045ED0E7
:1048300052EA03045BD0C3F30A54C1F30A552C4473
:10484000A4F2F3340194A0FB0254C1F3130141F428
:104850008011C3F3130343F4801301FB024400FBF4
:10486000034E840A970A44EA815447EA8357A4FB1B
:10487000076802958D0A05FB07854FEA932C04FB18
:104880000C542705029D4FEA065847EA1637B5EB48
:1048900008056EEB070C870E920E47EA811742EA75
:1048A0008312A7FB0201B6EB0B0164EB00042B0D96
:1048B00043EA0C335E1844EB1C50DA465146E7FBE2
:1048C0000201C5F313044FEA0B3343EA14534FEAD2
:1048D0000432019C43EA0603A4F10C040294009CF8
:1048E000CDE900B400F024F903B0BDE8F08F00205A
:1048F0000146F9E72DE9F04D81EA030404F0004B8D
:1049000021F0004514464FF0000A23F0004150EA20
:10491000050220D054EA01021DD0C5F30A57024611
:10492000C5F31303C1F31300C1F30A5640F4801515
:1049300043F48013A7EB0608101BD64608F2FD3897
:1049400073EB050002D308F1010801E092185B4106
:10495000B8F1000F03DA00200146BDE8F08D002019
:104960004FF48011064684460EE0171B73EB0507D3
:1049700005D3121B63EB050306434CEA010C4908FF
:104980004FEA300092185B4150EA0107EDD152EA3C
:10499000030012D082EA040083EA0501084305D02F
:1049A000101BAB4106D20122002306E000224FF08B
:1049B000004302E06FF0010253101AEB06004CEBCB
:1049C000085110EB0A0041EB0B01BDE8F04D00F07F
:1049D000A0B80EB5C10F80EAE0700844CA070021F4
:1049E00040F233438DE80E000A460B4600F0A0F873
:1049F00003B000BD0EB540F2334102910021CDE974
:104A000000110A460B4600F093F803B000BD70B5E4
:104A1000C1F30A5201F000450024C1F3130140F232
:104A2000FF3341F480119A4201DA002070BD40F258
:104A300033439A42A2F2334203DC524200F047F879
:104A400000E090402C43F1D0404270BDC1F30A52C7
:104A500010B5C1F3130140F2FF3341F480119A42C3
:104A600001DA002010BD40F233439A42A2F23342F1
:104A700003DC524200F02BF810BD904010BD000046
:104A800030B5041E71F1000404DB4FF000444042D5
:104A900064EB0101141E73F1000405DB1C464FF0AA
:104AA0000043524263EB04038B4208BF824230BD95
:104AB000202A04DB203A00FA02F1002070479140DE
:104AC000C2F1200320FA03F3194390407047202AD3
:104AD00004DB203A21FA02F00021704721FA02F3A8
:104AE000D040C2F120029140084319467047202A65
:104AF00006DBCB17203A41FA02F043EAE07306E006
:104B000041FA02F3D040C2F1200291400843194615
:104B1000704710B5141E73F1000408DA401C41F10F
:104B2000000192185B411A4301D120F0010010BD31
:104B30002DE9F04D92469B4611B1B1FA81F202E0A7
:104B4000B0FA80F220329046FFF7B2FF04460F46DB
:104B500040EA0A0041EA0B0153465A46084313D083
:104B6000114653EA010019D0C8F140025046FFF740
:104B7000AEFF05460E46504659464246FFF798FF9F
:104B8000084305D0012004E020463946BDE8F08DF9
:104B90000020054346EAE0762C4337430A98630534
:104BA000E40AA0EB08000022FD0A44EA47540A3058
:104BB00002D500200146E9E7010510196941DDE948
:104BC000084500196941BDE8F04DA2E770B521F034
:104BD000004303430CD0C1F30A550024D5EB040570
:104BE00064EB0403D617AD1AB34102DB0020014683
:104BF00070BD201841EB025170BD00002DE9F0415D
:104C0000054621F000400C46284309D0C4F30A5061
:104C100040F23341884205DD28462146BDE8F08157
:104C20002846FBE740F2FE31884210DC0CDB4FEAFD
:104C3000043040EA155050EA053105D0104804F020
:104C4000004101430020E9E700200146E6E7A0F229
:104C500033404642C6F1400228462146FFF728FF6E
:104C600007468846284621463246FFF730FF43462E
:104C70003A46FFF74EFF3246BDE8F041FFF718BF56
:104C80000000F03F30B5041E71F1000404DB4FF06A
:104C90000044404264EB0101141E73F1000405DB83
:104CA0001C464FF00043524263EB0403994208BF95
:104CB000904230BD064C074D06E0E06840F001032D
:104CC00094E8070098471034AC42F6D3FBF734FA67
:104CD000B85B0008D85B00082DE9F04D00231A46A8
:104CE0001B1A8A4103DB00200146BDE8F08DC1F3A9
:104CF0000A52C1F3130141F480154FF0000BD107A4
:104D000002D100186D41521E0027044640F2FF11E7
:104D1000384601EB620A3E468046024600204FF4C8
:104D20008011FFF7D4FEC2197141BB1846EB010098
:104D3000B4EB030C75EB000C04D3E41A65EB00052F
:104D400017460E46241908F101006D4180463428AB
:104D5000E3DDF91946EB0600091BA84103D24FF029
:104D6000FF32134601E0002213461BEB070046EB1F
:104D70000A51BDE8F04DFFF7CCBE00000FB4054B63
:104D800010B503A9044A029800F0A8F810BC5DF819
:104D900014FB0000351D0008D8000020490050EA2F
:104DA000C12018BF04204A0D18BF40F0010040F296
:104DB000FF72B2EB515F08BF40F00200012808BF4C
:104DC000052070472DE9F0414F1E00EBC701044656
:104DD000D1E9000115461E4637F006020DD02A46DD
:104DE0003346FFF715FD7F1E04EBC703D3E900230D
:104DF000FFF767FC37F00602F1D1022F25D0042F10
:104E000013D0062F18BFBDE8F0812A463346FFF7BE
:104E1000FFFCD4E90A23FFF754FC2A463346FFF788
:104E2000F7FCD4E90823FFF74CFC2A463346FFF78A
:104E3000EFFCD4E90623FFF744FC2A463346FFF78C
:104E4000E7FCD4E90423FFF73CFC2A463346FFF78E
:104E5000DFFCD4E90223FFF734FC2A463346FFF790
:104E6000D7FCD4E90023BDE8F041FFF72ABC0000DD
:104E70000022134610460149FFF73CBD0000F03FF9
:104E8000FFF71FBC0022134610461146FFF732BD44
:104E900040F2013200204FF0E041FFF797BE0000E2
:104EA000024A00201107FFF791BE000001FDFFFF3D
:104EB00002E008C8121F08C1002AFAD170477047E3
:104EC000002001E001C1121F002AFBD17047000041
:104ED0000149086070470000DC0000202DE9F84F10
:104EE0009946924688460546002706E025280AD0BE
:104EF00051464A4690476D1C7F1C28780028F5D102
:104F00003846BDE8F88F002315F8011F18462E29F2
:104F100015D115F8011F04232A290DD06FF02F0297
:104F20002978A1F13004092C09D800EB800002EBAC
:104F3000400008446D1CF3E758F8040B6D1C2A78F8
:104F4000002ADDD0632A07D0732A0FD010465146BD
:104F50004A4690477F1C2AE018F8042B8DF8002061
:104F600000218DF801106E46012103E058F8046B12
:104F70004FF0FF315A074FF0000401D409E0641CE0
:104F800084420BDA8C42FADB325D002AF7D105E06D
:104F9000641C8C42FCDB305D0028F9D1274404E01E
:104FA00016F8010B51464A469047641EF8D26D1C14
:104FB000A3E700002DE9F04D16460F4694B01C46BD
:104FC00021F0004123F00042002814BF4FF0010CF3
:104FD0004FF0000C0CEB470CFE4B0CEB03054FEABB
:104FE000630C65452BD3350018BF012505EB44053F
:104FF0001D44F94B9D4222D3F84B52EA060C02D0D5
:105000009F4205D148B914B000201946BDE8F08D83
:10501000002808BF4FF0000C01D04FF0010C0CEB42
:10502000470313F5001F0AD8002E14BF4FF0010CE0
:105030004FF0000C0CEB440313F5001F07D914B01C
:10504000324623463946BDE8F04DFFF719BFDFF879
:1050500090834FF0000A002FB8BF424523DAE14B9E
:105060009A42A8BF4FF0020A1DDADC4B93421ADCC9
:10507000DD4B03EB2253142B08DDC3F1340C26FA6D
:105080000CF303FA0CFCB4450DD108E05EB9C3F192
:10509000140C22FA0CF303FA0CFC944503D103F030
:1050A0000103C3F1020A51EA00031BD1002C19DAF3
:1050B000002F18BFBAF1020F02D0BAF1010F07D0CA
:1050C0000220FFF705FF14B0BDE8F04DFFF7D0BE9A
:1050D0000220FFF7FDFEFFF7CBFE14B081F0004188
:1050E000BDE8F08D330070D1424525D107F18042F3
:1050F00012F5801201BF00280020B84914B008BF83
:10510000BDE8F08DB548884207DC002CA1BF1846E9
:10511000214614B0BDE8F08D07E0002CBFBF184653
:1051200084F0004114B0BDE8F08DB0497944D1E974
:10513000000114B0BDE8F08DDFF8A0C262452AD1AD
:10514000002C24DA39B1414517D1002804BF0020D2
:1051500002461CD106E040B10220FFF7B9FEFFF77E
:1051600097FE0A46394600F0D7BA9D4A394614B030
:10517000002062F31E01BDE8F08D08DA14B03B4652
:10518000BDE8F04D024600206146FFF7B3BB14B006
:105190003946BDE8F08D414517DAB4F1804F0CD0A7
:1051A000A4F10053B3F1FF530FD13B1E0DDB14B03C
:1051B0001946BDE8F04D00F023BC3B4614B0024652
:1051C000BDE8F04D1946FFF723BB050027F000436B
:1051D0003AD1E1B1414537D1002F06DD002CA1BF06
:1051E0000020414614B0BDE8F08D002F01DD002CF9
:1051F0001FDB002F16DA002C14DBBAF1010F4FF081
:10520000000014BF76497A4914B0BDE8F08DBAF1B8
:10521000020F18BF002F0CD0BAF1010F09D1002FD7
:1052200007DA0BE0002FB8BF002C0DDABAF1010F3E
:1052300004D0002014B00146BDE8F08D14B0002069
:105240004FF00041BDE8F08D4FF0010808EBE77C1E
:10525000CDF814C05CEA0A0C0DD0DFF898C16245A5
:105260007EDDDFF894C1654B624512DD8B420ADBBF
:10527000002C18DB23E00120FFF72AFE14B0BDE864
:10528000F04DFFF7FFBD554A8A4202DC002C0ADCD4
:1052900015E0994202DA002C11DA04E04F4B9942F2
:1052A00019DD002C0BDD0220FFF712FEFFF7F0FDE9
:1052B0004B4A14B061F31E021146BDE8F08D022086
:1052C000FFF706FEFFF7ECFD444A14B061F31E023F
:1052D0001146BDE8F08D00223946FFF793FA0746E4
:1052E0000D466FF00102FFF771FC4FF05532444B51
:1052F000FFF78BFA3A462B46FFF78AFA0022414B1A
:10530000FFF783FA80468B463A462B4610461946ED
:10531000FFF77EFA42465B46FFF77AFA88460E9020
:105320004FF0C042384B38462946FFF771FA8346A2
:105330000091364A344B41460E98FFF769FA804691
:105340000191334A334B38462946FFF761FA42460A
:10535000019BFFF757FA0D4602460B460C9000E002
:1053600011E058460099FFF7ACF9002788465A46E5
:105370003846009BFFF746FA2B460C9AFFF745FA92
:10538000024600F079B90020B1F5801F07DA352216
:1053900028461946FFF71AFC05466FF0340000EB6B
:1053A0002150A0F2FF300190C1F3130040F07F6163
:1053B00041F04051029118498842D8BF4FF0000B8C
:1053C00035DD16498142C8BF4FF0010B2FDC4FF08D
:1053D000000B25E0FFFF1F00FFFF0F000000F03F64
:1053E0000000F07F0000404301FCFFFF800A000046
:1053F0000000F0FF0000E0410000F043FFFFEF3F3E
:105400005555D53F0000E03F4715F73FFE822B651D
:1054100044DF5DF80BAE543E8E9803007AB60B0065
:105420000198401C01900298A0F580100290FF485E
:105430000299784400EBCB000991D0E9002328467B
:105440000B931292FFF7DEF900910A9028460B9B0E
:10545000129A0999FFF735F902460B460020F449E4
:10546000FFF748FACDE90C010B46024600990A986D
:10547000FFF7CEF90690EF48884600277844029956
:10548000006810904FF0005040EA610000EB8B4044
:1054900000F5002102910B9B129A1098FFF7B2F9C8
:1054A0002A46099BFFF7B1F93A464346FFF7B0F9A0
:1054B0000891129038464146029B109AFFF7A8F9CE
:1054C000009B0A9AFFF7A1F9089B129AFFF79AF935
:1054D000DDE90C23FFF79CF90B91069A12904346E5
:1054E00010461946FFF794F905460246D2480B4686
:1054F0000A9106217844FFF765FC0A9B2A46089129
:10550000029010461946FFF783F9089B029AFFF7AD
:105510007FF905460991434638461946069AFFF732
:10552000D0F80B9B129AFFF773F92A46099BFFF7F5
:10553000C8F8CDE908013A46434610461946FFF738
:1055400067F90A910022BD4B0090FFF7BAF8DDE938
:105550000823FFF7B6F80D463A46B84B3846FFF732
:1055600051F90A9B009AFFF74DF9DDE90823FFF78F
:105570004CF9CDE908013A462B4610464146FFF763
:1055800047F900910A90DDE908014346069AFFF7C2
:105590003FF9069088462B463A460B991298FFF73A
:1055A00037F94346069AFFF78CF880460B460246C9
:1055B0000D9100990A98FFF784F800200F460546E0
:1055C000009B0A9AFFF71EF942460D9BFFF71DF953
:1055D00088460E904FF06042994B28463946FFF7B7
:1055E00017F902910090974A954B41460E98FFF7A4
:1055F0000FF980460391944A944B28463946FFF7A9
:1056000007F94246039BFFF75CF8914A7A4402EBA4
:10561000CB03D3E90023FFF754F80546079101981F
:10562000FFF7D7F90C9003912A46079B029900983F
:10563000FFF747F8874A7A4402EBCB03D3E900230C
:1056400093460193FFF73DF8039B0C9AFFF739F857
:10565000002788463846039B0C9AFFF7D3F85A4632
:10566000019BFFF7CFF8029B009AFFF7CBF82A4681
:10567000079BFFF7CAF802460020069005986C4D7C
:10568000AAF10103184301D1734D069000200B4687
:10569000049030462146FFF7BBF882468B462346EE
:1056A00030461946049AFFF7ADF83A464346FFF7ED
:1056B000AFF852465B46FFF704F806468A463A467C
:1056C000434621460498FFF7A3F804460F463246A6
:1056D0005346FEF7F6FF614A8B46914221DBABEB66
:1056E000020353EA000210D122463B46FFF78AF834
:1056F000804603915A4A5B4B30465146FEF7E1FF24
:105700004246039BFFF7BEFA27D20220FFF7E0FBD9
:10571000FFF7BEFB0A46294614B062F31E01BDE83E
:10572000F08D514B2BF000429A4216D34F4A0BEBAF
:10573000020353EA000208D122463B46FFF762F813
:1057400032465346FFF79EFA07D80220FFF7C0FB08
:10575000FFF7A6FB0A462946DEE72BF00040444946
:10576000444A01EB20514FF00008824223DA481CE2
:105770004FF4801121FA00F058443F4AC0F30A5117
:105780007A443E4BA1F2FF31CB4020EA0303C0F341
:10579000130040F4801CC1F1140012682CFA00F8C8
:1057A000BBF1000FB8BFC8F1000820463946FFF72B
:1057B00029F804460F4622463B4630465146FEF73E
:1057C00080FF4FF0000B5A462D4B58460391FFF7D0
:1057D0001FF800910A902B4A2B4B58460399FFF76C
:1057E00017F80491029022463B4658460399FFF76A
:1057F00009F832465346FFF708F8244A244BFFF7CE
:1058000007F8049B029AFEF75CFF07468A46009B56
:105810000A9AFEF756FF04460E46009B0A9AFEF7C8
:10582000F1FF3A465346FEF7F0FF33E0F206000080
:105830000000F03F30070000600600000000084054
:1058400009C7EE3FFD033ADCF5015B14E02F3EBED5
:1058500038050000FE0400000000F0BF000090408A
:10586000FE822B654715973C00CC904000346F3F7B
:1058700001FCFFFF0000E03F2C040000FFFF0F00D1
:10588000432EE63F396CA80C615C20BEEF39FAFE6E
:10589000422EE63F0746224633460F9110461946F0
:1058A000FEF7B6FF834602462E488A460B46052180
:1058B0007844FFF787FA5A465346FEF7A9FF224677
:1058C0003346FEF7A2FF82468B463A4620463146D3
:1058D0000F9BFEF79DFF3A460F9BFEF7F2FE0F4629
:1058E0000A9000224FF0804350465946FEF78AFF47
:1058F0000391009052465B4620463146FEF788FFF2
:10590000039B009AFEF7F6FF3B460A9AFEF77AFFE2
:1059100022463346FEF776FF0022134BFEF775FF53
:105920000E46044601EB08510815002810DC4246DB
:1059300020463146FFF74AF9FFF730FA042808BF3E
:10594000FFF7AEFA424620463146FFF73FF90446DC
:1059500006980B4614B022462946BDE8F04DFEF7E6
:1059600057BF0000D40200000000F03F2DE9F04DC9
:1059700007460E46FFF742F904460D463A463346BF
:10598000FEF743FFDFF86CA0DFF86CB01B4B074657
:10599000884616F0004F4FF000020AD0FFF770F86B
:1059A0000AD900225B4638464146FFF76BF91BD205
:1059B00012E0FFF765F808D2002253462046294638
:1059C000FEF720FF04460D460EE000225B463846F7
:1059D0004146FFF757F907D800225346204629468B
:1059E000FEF76FFE04460D463146204665F31E0164
:1059F000BDE8F08D0000F03F0000E03F0000E0BF98
:105A00002DE9F04106460F46FFF766F904000D4602
:105A100018BF0120284320F00040C0F17F6000F152
:105A2000E040C00F0ED0301C18BF0120384320F0DA
:105A30000040C0F17F6000F1E040C00F04BF0120D2
:105A4000FFF746FA20462946BDE8F08150494E4707
:105A500000504F4E4700000020AEA036E07D0B37CF
:105A6000A017083660F0AF3660F0AF36403D2E36F6
:105A7000C0AFD235000D993620A5633680A33137EB
:105A80004061223760DE353640466B36A032BF3685
:105A9000A032BF36A00ECB35E0625436A044393771
:105AA000A00ECB35809AF436001F1337E050DA355C
:105AB00040466B36809AF43680A33137807F3D367E
:105AC0000016D636A03BFC36C0C14C36809AF43660
:105AD00060DE353680A33137809AF4368091B73650
